:020000040800F2
:10000000F82E0020DD010008D5130008D90D0008E6
:10001000350E000821080008ED220008000000004D
:100020000000000000000000000000004501000882
:10003000C10C00080000000089010008AD1600088E
:10004000F7010008F7010008F7010008F7010008B0
:10005000F7010008F7010008F7010008F7010008A0
:10006000F7010008F7010008F7010008F701000890
:10007000F7010008F7010008F7010008F701000880
:10008000F7010008F7010008F7010008F701000870
:10009000F7010008F7010008F7010008F701000860
:1000A000F7010008F7010008F7010008F701000850
:1000B000F7010008F7010008F7010008F701000840
:1000C000F7010008F7010008F7010008F701000830
:1000D000F7010008E120000809210008F7010008E5
:1000E000F7010008F7010008F7010008F701000810
:1000F000F7010008F7010008F7010008F701000800
:10010000F7010008F7010008F7010008F7010008EF
:10011000F7010008F7010008F7010008F7010008DF
:10012000F7010008F7010008F7010008F7010008CF
:10013000DFF80CD000F038FA00480047C12500086D
:10014000F82E0020224B19680868B0E8F00F80F301
:100150000988BFF36F8F4FF0000080F311884EF0D5
:100160000D0E70470000000006480068006880F32C
:10017000088862B661B6BFF34F8FBFF36F8F00DFA1
:1001800000BF00BF08ED00E0EFF30980BFF36F8F01
:100190000F4B1A6820E9F00F106008B54FF05000BF
:1001A00080F31188BFF34F8FBFF36F8F03F034FCE0
:1001B0004FF0000080F31188BDE808401968086816
:1001C000B0E8F00F80F30988BFF36F8F704700BF6E
:1001D0000C000020EFF305807047000006488047C0
:1001E00006480047FEE7FEE7FEE7FEE7FEE7FEE71C
:1001F000FEE7FEE7FEE7FEE7C11600083101000852
:1002000040EA01039B0703D009E008C9121F08C098
:10021000042AFAD203E011F8013B00F8013B521E18
:10022000F9D2704780EA010210B502F000434000A5
:1002300022D04A001FD0010E01EB1261C0F356001C
:10024000C2F3560240F4000042F40002A0FB022078
:1002500000047F39140400D0401C50EA124001D43D
:100260004000491EC2B20C0604EBD010401C4008EE
:10027000802A02D003E0002010BD20F001000029F8
:1002800000DA0020184310BD2DE9FE4F81EA030477
:1002900004F0004421F0004100944FF0000B23F0E3
:1002A000004350EA01045ED052EA03045BD0C3F37A
:1002B0000A54C1F30A552C44A4F2F3340194A0FB70
:1002C0000254C1F3130141F48011C3F3130343F447
:1002D000801301FB024400FB034E840A970A44EAA0
:1002E000815447EA8357A4FB076802958D0A05FBF2
:1002F00007854FEA932C04FB0C542705029D4FEA17
:10030000065847EA1637B5EB08056EEB070C870E63
:10031000920E47EA811742EA8312A7FB0201B6EB6D
:100320000B0164EB00042B0D43EA0C335E1844EB25
:100330001C50DA465146E7FB0201C5F313044FEAAD
:100340000B3343EA14534FEA0432019C43EA060399
:10035000A4F10C040294009CCDE900B400F0D5F89F
:1003600003B0BDE8F08F00200146F9E7C10F80EA35
:10037000E0700844CA079623002100F089B800F015
:10038000004220F00040C10DC0F3160040F4000010
:100390007F2901DA00207047962903DCC1F196011C
:1003A000C84001E096398840002AF4D040427047A6
:1003B00070B5C1F30A5201F000450024C1F31301E6
:1003C00040F2FF3341F480119A4201DA002070BDFF
:1003D00040F233439A42A2F2334203DC524200F02D
:1003E0003EF800E090402C43F1D0404270BD00F058
:1003F000004230F000400AD0C10D01F56071C0F339
:10040000160042EA0151C20840071143704700201C
:100410000146704730B50B460146002020220124DA
:1004200009E021FA02F59D4205D303FA02F5491BC2
:1004300004FA02F52844151EA2F10102F1DC30BDD8
:10044000202A04DB203A00FA02F100207047914094
:10045000C2F1200320FA03F3194390407047202A89
:1004600004DB203A21FA02F00021704721FA02F35E
:10047000D040C2F12002914008431946704700293C
:10048000A8BF7047401C490008BF20F0010070471A
:1004900010B4B0FA80FC00FA0CF050EA010404BF7A
:1004A00010BC704749B1CCF1200421FA04F411FAD0
:1004B0000CF118BF012121430843A3EB0C01CB1D14
:1004C0004FEA00614FEA102042BF002010BC704785
:1004D00000EBC35010440029A4BF10BC7047401C5F
:1004E000490008BF20F0010010BC704710B5141E71
:1004F00073F1000408DA401C41F1000192185B41DD
:100500001A4301D120F0010010BD2DE9F04D9246B3
:100510009B4611B1B1FA81F202E0B0FA80F22032CA
:100520009046FFF78DFF04460F4640EA0A0041EA75
:100530000B0153465A46084313D0114653EA0100B3
:1005400019D0C8F140025046FFF789FF05460E4614
:10055000504659464246FFF773FF084305D0012035
:1005600004E020463946BDE8F08D0020054346EA08
:10057000E0762C4337430A986305E40AA0EB0800B1
:100580000022FD0A44EA47540A3002D50020014601
:10059000E9E7010510196941DDE9084500196941DC
:1005A000BDE8F04DA2E70000064C074D06E0E0680C
:1005B00040F0010394E8070098471034AC42F6D3AA
:1005C000FFF7BAFD404900086049000870B58C1873
:1005D00010F8015B15F0070301D110F8013B2A1157
:1005E00006D110F8012B03E010F8016B01F8016B44
:1005F0005B1EF9D12B0705D40023521E0DD401F840
:10060000013BFAE710F8013BCB1A921C03E013F808
:10061000015B01F8015B521EF9D5A142D8D300203D
:1006200070BD0029816802D041F0010101E021F094
:10063000010181607047014600208968490700D5A3
:1006400001207047C06C80B27047024600201268DB
:100650000A4200D00120704701460020896809073E
:1006600000D501207047000010B542680E4B0C7990
:100670001A400B6842EA04221343436082680B4B22
:100680001A40D1E9024323434C7942EA440213431E
:100690008360C26A097C22F47002491EC9B242EA30
:1006A0000151C16210BD0000FFFEF0FFFDF7F1FF38
:1006B00070B5072609290AD9C568A1F10A0404EB17
:1006C0004404A640B543A3401D43C56007E0056947
:1006D00001EB4104A640B543A3401D4305611F2320
:1006E000072A09D2446B521E02EB820293409C43BC
:1006F00091400C43446370BD0D2A09D2046BD21F94
:1007000002EB820293409C4391400C43046370BD12
:10071000C46A0D3A02EB820293409C4391400C4321
:10072000C46270BD816841F0080181607047002992
:10073000816802D041F4A00101E021F4A0018160B0
:100740007047816841F00401816070471CB505491C
:100750000620CDE900010023802203A1054803F013
:10076000C3FC1CBDBC00002053746172745F5461F3
:10077000736B0000051600082DE9F04101F0B8FD8B
:100780001F4C014620801FA001F014FE208840F27B
:100790001A41224D8842204F4FF480764FF00401D9
:1007A000284623D200F008FBC0F10100C2B20421A8
:1007B000284600F00CFB208840F2DE3188421DD232
:1007C0000421284600F0FFFA3146384600F0FDFAD1
:1007D000002000F09BFC002000F0CAFC002000F08C
:1007E000F9FCBDE8F041002000F026BD00F0EDFA74
:1007F00031463846BDE8F04100F0E5BABDE8F08189
:10080000B40000206261747465727920766F6C3A6E
:10081000202564200D0A000000080140001401405A
:10082000FEE7000070B51C4C401A2061A1690D184C
:10083000A561FFF79BFD2168FFF7F4FCFFF79FFD23
:1008400006462846FFF792FD6168FFF7EBFCFFF7CD
:10085000CEFD124A124BFFF717FDFFF7A9FD4FF42B
:100860007A720546514201F078FED4E90401401A3B
:10087000FFF77CFDA168FFF7D5FCFFF780FD71193C
:1008800008444FF4FA625142E06001F066FE2069CC
:100890006061A08900B270BDC8000020FCA9F1D23F
:1008A0004D62603F70B51C4C401A2062A16A0D1861
:1008B000A562FFF75BFD2168FFF7B4FCFFF75FFD62
:1008C00006462846FFF752FD6168FFF7ABFCFFF7CD
:1008D0008EFD124A124BFFF7D7FCFFF769FD4FF46C
:1008E0007A720546514201F038FED4E90801401AF7
:1008F000FFF73CFDA168FFF795FCFFF740FD71197C
:1009000008444FF4FA625142E06101F026FE206A89
:100910006062A08B00B270BDC8000020FCA9F1D2BB
:100920004D62603F70B51C4C401A2063A16B0D18DE
:10093000A563FFF71BFD2168FFF774FCFFF71FFDA0
:1009400006462846FFF712FD6168FFF76BFCFFF7CC
:100950004EFD124A124BFFF797FCFFF729FD4FF4AB
:100960007A720546514201F0F8FDD4E90C01401AB3
:10097000FFF7FCFCA168FFF755FCFFF700FD7119BC
:1009800008444FF4FA625142E06201F0E6FD206B48
:100990006063A08D00B270BDC8000020FCA9F1D238
:1009A0004D62603F70B51C4C401A2064A16C0D185C
:1009B000A564FFF7DBFC2168FFF734FCFFF7DFFCE1
:1009C00006462846FFF7D2FC6168FFF72BFCFFF7CD
:1009D0000EFD124A124BFFF757FCFFF7E9FC4FF4EC
:1009E0007A720546514201F0B8FDD4E91001401A6F
:1009F000FFF7BCFCA168FFF715FCFFF7C0FC7119FD
:100A000008444FF4FA625142E06301F0A6FD206C05
:100A10006064A08F00B270BDC8000020FCA9F1D2B4
:100A20004D62603F2DE9F04100F005FA424C47F27B
:100A30003055281A208000F063FA401B608000F0D7
:100A4000BBFA281AA08000F00DFB401BE08028466E
:100A500000F052FA284600F0A9FA284600F0FCFA05
:100A6000284600F04DFBA4F1080521882888334E64
:100A700008442880688861884FF4FA6708446880D1
:100A8000A888A1883A460844A880E888E1880844F4
:100A9000E880B6F90000114601F057FD3A46B6F974
:100AA0000200114601F051FD3A46B6F90400114624
:100AB00001F04BFD04F10806B4F90010B6F900008E
:100AC000FFF7B0FE04F110073880B4F90210B6F950
:100AD0000200FFF7E7FE7880B4F90410B6F90400CD
:100AE000FFF720FFB880B4F90610B6F90600FFF74B
:100AF00059FFF880B5F9001011A001F05BFCB5F9C1
:100B0000021013A001F056FCB5F9041014A001F076
:100B100051FCB5F9061016A001F04CFC002000F0C5
:100B2000F5FA002000F024FB002000F053FBBDE8A4
:100B3000F041002000F080BB1C01002004000020D8
:100B40006F757470757420303A202564200D0A008A
:100B50006F757470757420313A202564200D0A0079
:100B60006F757470757420323A202564200D0A0068
:100B70006F757470757420333A202564200D0A0057
:100B80000029016802D041F0010102E04FF6FE7237
:100B9000114001607047000001684FF6FE7211407D
:100BA00001600021016041608160C1603149314ACA
:100BB0000839904203D1486840F00F0006E02D4A02
:100BC0001432904204D1486840F0F0004860704709
:100BD000284A2832904203D1486840F47060F5E713
:100BE000244A3C32904203D1486840F47040EDE71B
:100BF000204A5032904203D1486840F47020E5E723
:100C00001C4A6432904203D1486840F47000DDE72A
:100C1000184A7832904203D1486840F07060D5E7B6
:100C2000154A111F904203D1086840F00F0006E0FA
:100C3000114A1432904204D1086840F0F000086074
:100C400070470D4A2832904203D1086840F4706022
:100C5000F5E7094A3C32904203D1086840F47040FD
:100C6000EDE7054A50329042EAD1086840F470201E
:100C7000E5E700000800024008040240406880B236
:100C8000704730B5026847F6F0739A430C6A8B6878
:100C90002343D1E904452C4323438C692343CC6986
:100CA00023434C6A23438C6A234313430360CA687B
:100CB00042600A6882604968C16030BD4160704727
:100CC0007047F0B5CC78002204F00F03E40601D59C
:100CD0008C7823430C784FF00F0C14F0FF0F4FF07B
:100CE000010E1BD005680E880EFA02F42640A642BB
:100CF00010D196000CFA06F725EA070703FA06F565
:100D0000CE783D43282E02D0482E02D002E0446126
:100D100000E00461521C082AE5D305600A88FF2A16
:100D20001CD94468002202F108060EFA06F50E8866
:100D30002E40AE420ED196000CFA06F7BC4303FAE1
:100D400006F7CE783C43282E00D14561CE78482E58
:100D500000D10561521C082AE5D34460F0BD0000B3
:100D6000F0B5144C002801DAE36900E06368450D32
:100D70002E0185B2C0F30157B540C0F30342032FE3
:100D800005D0C6020AD503269640B34307E023F0F8
:100D90007062636823F07063636002E0AB4343F00A
:100DA000706201B12A43002801DAE261F0BD62609D
:100DB000F0BD0000000001400246002092680A4297
:100DC00000D00120704741617047016170470AB14E
:100DD0000161704741617047FEE70000F8B50121ED
:100DE000242000F059FB0420ADF8000010208DF8FD
:100DF000030003200D4D8DF8020069462846FFF7D9
:100E000060FF0B4EAC15ADF8004069463046FFF769
:100E100058FF04212846FFF7D8FF21463046FFF748
:100E2000D4FF21463046FFF7CEFFF8BD0014014045
:100E300000080140FEE74FF0804000F008BE0000CF
:100E400070B5054688B001210D2000F025FB012179
:100E50002548FFF785FF01212448FFF781FF08207F
:100E6000ADF80C0004208DF80F0003208DF80E0063
:100E700003A91F48FFF725FF4FF40040ADF80C0011
:100E800003A91C48FFF71DFF0121084600F0ECFAFA
:100E90004FF08046304600F009FD684601F008F842
:100EA0000024ADF80040ADF80450ADF80640ADF8B0
:100EB00002406946304600F0ADFF00231A46032188
:100EC000304600F0ABFD04A800F05AFE0620ADF855
:100ED000180004A9304600F0BDFDB484012130465D
:100EE00000F0CEFC08B070BD000318000002300016
:100EF000000C0140000801404FF080418884704799
:100F0000014800F0A4BD00000004004070B5054693
:100F100088B00121092000F0BFFA3020ADF8180098
:100F200004208DF81B0003208DF81A0006A91C4828
:100F3000FFF7C7FE0121022000F096FA01211948AF
:100F4000FFF70EFF184E304600F0B0FC684600F088
:100F5000AFFF0024ADF80040ADF80450ADF80640F6
:100F6000ADF802406946304600F054FF00231A46AF
:100F70000321304600F052FD03A800F001FE0620D8
:100F8000ADF8140003A9304600F064FD0648243093
:100F900004800121304600F073FC08B070BD0000F1
:100FA000000C014000081A000004004001490880BC
:100FB0007047000024040040014800F048BD0000D4
:100FC0000008004070B5054688B00121082000F0F7
:100FD00063FAC020ADF8180004208DF81B00032030
:100FE0008DF81A0006A91A48FFF76BFE01210420AC
:100FF00000F03AFA174E304600F058FC684600F010
:1010000057FF0024ADF80040ADF80450ADF806409D
:10101000ADF802406946304600F0FCFE00231A4657
:101020000321304600F0FAFC03A800F0A9FD0620D9
:10103000ADF8140003A9304600F00CFD054824303B
:1010400004800121304600F01BFC08B070BD000098
:10105000000C014000080040014908807047000072
:1010600024080040014800F0F2BC0000000C0040E1
:1010700070B5054688B00121042000F00DFA032167
:10108000ADF8181004208DF81B008DF81A1006A971
:101090001948FFF716FE0121082000F0E5F9174E68
:1010A000304600F003FC684600F002FF0024ADF873
:1010B0000040ADF80450ADF80640ADF80240694676
:1010C000304600F0A7FE00231A460321304600F008
:1010D000A5FC03A800F054FD0620ADF8140003A9F8
:1010E000304600F0B7FC054824300480012130462A
:1010F00000F0C6FB08B070BD00080140000C0040C5
:101100000149088070470000240C004070B5164D5E
:10111000041E09DD10212846FFF755FE2021284630
:10112000FFF753FEA1B20AE013DA20212846FFF7A9
:101130004AFE10212846FFF748FE604281B24FF474
:10114000FA60814200D90146BDE87040074800F0CE
:101150002FBE10212846FFF736FE20212846FFF734
:1011600032FE0021F0E70000001001400034014091
:1011700070B5164D041E09DD04212846FFF723FE35
:1011800008212846FFF721FEA1B20AE013DA082160
:101190002846FFF718FE04212846FFF716FE604296
:1011A00081B24FF4FA60814200D90146BDE8704037
:1011B000074800F0FFBD04212846FFF704FE082180
:1011C0002846FFF700FE0021F0E700000010014074
:1011D0000034014070B5164D041E09DD0221284679
:1011E000FFF7F1FD01212846FFF7EFFDA1B20AE06C
:1011F00013DA01212846FFF7E6FD02212846FFF712
:10120000E4FD604281B24FF4FA60814200D90146A8
:10121000BDE87040074800F0CFBD02212846FFF727
:10122000D2FD01212846FFF7CEFD0021F0E70000A6
:1012300000100140003401402DE9F041174D041E1B
:101240004FF400664FF4805709DD31462846FFF71A
:10125000BAFD39462846FFF7B8FDA1B20AE013DA15
:1012600039462846FFF7AFFD31462846FFF7ADFD6A
:10127000604281B24FF4FA60814200D90146BDE874
:10128000F041074800F09ABD31462846FFF79BFD24
:1012900039462846FFF797FD0021F0E70008014096
:1012A0000034014070B5044688B00121112000F0DF
:1012B000F3F84FF47070ADF8000018208DF80300BB
:1012C000414E03258DF8025069463046FFF7F9FC80
:1012D0000121142000F0E0F83020ADF800001020CB
:1012E0008DF803008DF8025069463046FFF7E9FC9F
:1012F0000C20ADF8000069463046FFF7E2FCADF87F
:10130000005069463046FFF7DCFCE802ADF800000B
:1013100069462E48FFF7D5FC002C52D0142C00D97A
:1013200014240121480300F0B7F840F2CF70ADF863
:1013300018002420B0FBF4F0401EADF81400002487
:10134000234DADF81A40ADF8164005A9284600F027
:1013500061FD6020ADF804000120ADF80600ADF895
:101360000A40ADF80C4001A9284600F011FC082104
:10137000284600F04DFC01A9284600F04FFC08214A
:10138000284600F08BFC01A9284600F091FC0821BA
:10139000284600F0CBFC01A9284600F0CDFC08212E
:1013A000284600F0FBFC0121284600F05FFA0121ED
:1013B000284600F065FA0121284600F06BFA08B0D3
:1013C00070BD0124ADE7000000100140000801409D
:1013D000003401407047000030B50F23C278017817
:1013E0000125F2B1144A126801F1E02102F4E06231
:1013F000C2F5E062120AC2F10404D3404278A2406E
:1014000084781C401443220181F80024007800F005
:101410001F018D404009800000F1E020C0F800511C
:1014200030BD01F01F0085404809800000F1E02038
:10143000C0F8805130BD00000CED00E0034A516857
:1014400021F4404101435160704700000010024008
:10145000044A0029516901D0014300E081435161F0
:101460007047000000100240044A0029D16901D0F1
:10147000014300E08143D161704700000010024049
:10148000044A0029116901D0014300E08143116140
:101490007047000000100240044A0029916901D001
:1014A000014300E081439161704700000010024059
:1014B000044A0029D16801D0014300E08143D16092
:1014C000704700000010024030B5204A5168204BA0
:1014D00011F00C0103D0042901D0082901D00360C8
:1014E00012E05168536801F470114FF0020413F4D4
:1014F000803F04EB914102D053689B0301D5154B0B
:1015000000E0134B5943016051680F2303EA1111A6
:10151000114B5C5C0168E14041605468072505EAB5
:1015200014241C5D21FA04F48460546805EAD42470
:101530001B5DD940C1605268032303EA9232064B17
:101540001B1F9A5CB1FBF2F1016130BD001002403B
:1015500000127A0000093D00900000200CB5002226
:10156000264800920192016841F4803101604FF4F5
:10157000A063016801F4003101910099491C0091B8
:10158000019911B900999942F3D10168890333D5C2
:10159000012101911A490A6842F010020A600A68A2
:1015A00022F003020A600A6842F002020A604168FF
:1015B000416041684160416841F480614160416837
:1015C00021F47C114160416841F4E81141600168F7
:1015D00041F08071016001688901FCD5416821F00A
:1015E00003014160416841F0020141604168C1F37B
:1015F00081010229FAD10CBD01920CBD00100240FC
:10160000002002407CB501F087FD1A490220CDE997
:1016100000010023802218A11A4802F065FD154937
:101620000420091DCDE900018201002316A11A48FA
:1016300002F05AFD002506242B46642217A11A4801
:10164000CDE9004502F050FD0023642213A11648A5
:10165000CDE9004502F048FD4FF4FA7001F066FF55
:1016600004480838406802F00FF8BDE87C4001F0FB
:10167000A3BD0000C00000205461736B5F32306D69
:1016800073000000C31E00085461736B5F43686100
:101690007373697300000000D31E000874657374CF
:1016A0005F7461736B0000005530000810B502F0E4
:1016B00047FD012803D0BDE8104002F02DBA10BD4F
:1016C0000F4810B5016841F00101016041680D4A01
:1016D0001140416001680C4A11400160016821F429
:1016E00080210160416821F4FE0141604FF41F0137
:1016F0008160FFF733FF05494FF00060086010BDBF
:10170000001002400000FFF8FFFFF6FE08ED00E0C9
:1017100010B54FF4E134204600F0E6FB204600F01F
:1017200065FC0A20FFF7BEFD4EF660242046FFF759
:1017300087FB2046FFF7EAFB2046FFF743FC2046E5
:10174000FFF796FC64102046FFF7D6FB2046FFF714
:101750002DFC2046FFF780FC2046FFF7D1FC00F06F
:10176000E1FDFFF73BFBBDE8104001A000F022BE09
:1017700053797374656D20696E69742E2E2E200D59
:101780000A00000070B5048C24F001040484058B69
:10179000048C4FF6FF7606EA0313134325F0F30596
:1017A0000E4A2B4390420ED00D4A90420BD0B0F11E
:1017B000804F08D00B4A904205D00B4A904202D08D
:1017C0000A4A904202D124F0020201E024F00A0207
:1017D0000A4342F001010383018470BD002C0140E3
:1017E000003401400004004000080040000C0040AC
:1017F000F0B5048C24F010040484078B048C4FF69D
:10180000FF7527F4734705EA03333B4305EA0222D9
:101810001A43114B05EA011698420ED00F4B98421D
:101820000BD0B0F1804F08D00D4B984205D00D4B36
:10183000984202D00C4B984205D124F0200131434C
:1018400041F0100104E024F0A0030B4343F0100129
:1018500002830184F0BD0000002C014000340140EF
:101860000004004000080040000C004000290188EE
:1018700002D041F0800101E021F080010180704739
:101880000029018802D041F0010101E021F00101AD
:1018900001807047002930F8441F02D041F4004114
:1018A00001E0C1F30E010180704700004B4910B503
:1018B000884202D10121C41486E0B0F1804F09D0E2
:1018C000474988420DD101210220FFF7D9FD0021AF
:1018D000022064E001210846FFF7D2FD002101202B
:1018E0005DE04049884206D101210420FFF7C8FD90
:1018F0000021042053E03C49884206D10121082000
:10190000FFF7BEFD0021082049E03849884206D192
:1019100001211020FFF7B4FD002110203FE03449E1
:10192000884206D101212020FFF7AAFD00212020B6
:1019300035E03049884202D10121441444E02E4967
:10194000884202D10121CC043EE02C49884202D1D8
:1019500001210C0538E02A49884202D101214C05B9
:1019600032E02849884206D101214020FFF788FD56
:101970000021402013E02449884206D10121802023
:10198000FFF77EFD0021802009E0204988420AD12E
:10199000841501212046FFF773FD00212046BDE894
:1019A0001040FFF76DBD1A49884202D101210C0495
:1019B0000AE01849884202D101214C0404E016498A
:1019C00088420AD101218C042046FFF771FD204690
:1019D000BDE810400021FFF76BBD10BD002C014099
:1019E0000004004000080040000C004000100040CF
:1019F0000014004000340140004C01400050014000
:101A00000054014000180040001C0040002000402D
:101A100000400140004401400048014070B5058984
:101A2000048B068C25F007050D434FF6FC410C4056
:101A300040F201110C434FF6FF7101EA031126F049
:101A400022061143314305810483018470BD808CDB
:101A5000704700002DE9F84F0D4604460888434FB3
:101A6000DFF80CC1DFF80C81DFF80C914988AA88F7
:101A70002B894FF0804A48B3042830D04FF6FF76C8
:101A80000828934634D0208C9E4620F48050208431
:101A9000A38B208C06EA0132009223F4734306EAFA
:101AA0000B221A4306EA0E331343BC420AD06445A4
:101AB00008D0544506D0444504D04C4502D02F4AA6
:101AC000944245D120F40050009943E02046FFF7AE
:101AD00059FEE9882046BDE8F84F00F072B920466B
:101AE000FFF786FEE9882046BDE8F84F00F071B99F
:101AF000208C20F480702084B4F81CE0208C06EA4E
:101B0000031306EA01222EF0F30E43EA0B0343EA25
:101B10000E030092BC420AD0644508D0544506D05A
:101B2000444504D04C4502D0144A944203D120F4D9
:101B30000070009901E020F42060084340F48070B8
:101B4000A3832084E9882046BDE8F84F00F04DB912
:101B500020F40240084340F48050A3832084E988A5
:101B60002046BDE8F84F00F048B90000002C0140C5
:101B7000003401400004004000080040000C004018
:101B800000210180418001228280C1800181704753
:101B900030B5028C22F001020284028C8388048B0F
:101BA00022F0020224F073050C882C430D891543A2
:101BB0004A882A43114DA8420BD0114DA84208D0A3
:101BC000104DA84205D0104DA84202D00F4DA8429A
:101BD0000DD122F008054A8923F440732A4322F0EC
:101BE00004058A882A438D891D43CB892B43838032
:101BF0000483C9888186028430BD0000002C014026
:101C000000340140004001400044014000480140D0
:101C1000028B22F008020A430283704770B5028CDF
:101C200022F010020284028C8388048B0D8824F435
:101C3000E6464FF6FF7404EA052535430E8922F087
:101C4000200204EA061616434A8804EA02123243C6
:101C5000104EB04202D0104EB04215D122F0800694
:101C60004A8923F4406304EA0212324322F0400618
:101C70008A8804EA021232438E8904EA86061E43E9
:101C8000CB8904EA8303334383800583C9880187B2
:101C9000028470BD002C014000340140028B4FF6DD
:101CA000FF7322F4006203EA0121114301837047AC
:101CB00070B5028C22F480720284028C8388848B3B
:101CC0000D8824F0730425430E894FF6FF7422F427
:101CD000007204EA062616434A8804EA02223243C6
:101CE000104EB04202D0104EB04215D122F4006620
:101CF0004A8923F4405304EA0222324322F48066E4
:101D00008A8804EA022232438E8904EA06161E43B8
:101D1000CB8904EA0313334383808583C988818791
:101D2000028470BD002C014000340140828B22F0FF
:101D300008020A438283704770B5028C22F48052F5
:101D40000284058C8288838B0C8823F4E6464FF648
:101D5000FF7303EA0424344325F400560D8903EA93
:101D6000053535434E8803EA06362E43094DA84211
:101D700002D0094DA84205D122F480458A8903EAA0
:101D800082122A4382808483C988A0F84010068486
:101D900070BD0000002C014000340140828B4FF6E2
:101DA000FF7322F4006203EA01211143818370472B
:101DB000818670470187704781877047A0F840107F
:101DC0007047028B22F00C020283028B0A430283CB
:101DD0007047028B22F440620283028B4FF6FF733E
:101DE00003EA01210A4302837047828B22F00C022E
:101DF0008283828B0A4382837047828B22F4406203
:101E00008283828B4FF6FF7303EA01210A438283A8
:101E10007047000030B502881B4C1C4DA0420DD00D
:101E2000A8420BD0B0F1804F08D0194B984205D092
:101E3000184B984202D0184B984203D122F07003FD
:101E40004A881A43154B984206D0154B984203D046
:101E500022F44073CA881A4302808A8882850A88DD
:101E60000285A0420AD0A84208D00E4A904205D06E
:101E70000D4A904202D00D4A904201D1097A018662
:101E80000121818230BD0000002C0140003401405E
:101E90000004004000080040000C0040001000401A
:101EA000001400400040014000440140004801404F
:101EB0004FF6FF71818000210180C1804180017255
:101EC00070474FF47A74204601F030FBFEF754FC63
:101ED000F9E708B502F042F90090FEF7A3FD0221F0
:101EE000684601F05FFBF5E730B5044687B0012195
:101EF0000420FFF7D1FA01218803FFF7CDFA4FF450
:101F00000071ADF8101018218DF8131003201E4D2C
:101F10008DF8120004A92846FEF7D3FE2815ADF867
:101F2000100004218DF8131004A92846FEF7C9FEFD
:101F30000020ADF804000094ADF80600ADF80800EC
:101F4000ADF80C000C20114CADF80A006946204693
:101F500000F06EF925218DF8141002208DF815007F
:101F600001218DF816108DF8171005A8FFF734FA27
:101F7000012240F22551204600F042F9012120467D
:101F800000F006F907B030BD0008014000380140FC
:101F900010B501218CB00846FFF75AFA104C2046C4
:101FA000FEF7FAFD0F4800900F480021CDE901012E
:101FB0001420CDE903018020CDE905012020CDE9E1
:101FC00007104FF44050CDE9090169462046FEF75D
:101FD00058FE01212046FEF7D3FD0CB010BD0000D5
:101FE0006C000240044400403801002070B50446F3
:101FF00086B001210420FFF74FFA0425ADF81050F8
:1020000018208DF813000320234E8DF8120004A928
:102010003046FEF756FE0820ADF810008DF813503C
:1020200004A93046FEF74DFE01214804FFF71CFAD3
:102030000020ADF804000094ADF80600ADF80800EB
:10204000ADF80C000C20154CADF80A00694620468E
:1020500000F0EEF826218DF8141002208DF81500FE
:1020600001218DF816108DF8171005A8FFF7B4F9A7
:10207000012240F22441204600F0C2F80122402112
:10208000204600F08FF8FFF783FF0121204600F083
:102090007FF806B070BD0000000801400044004019
:1020A0002DE9F0410D46064600240B4FDFF82C8049
:1020B0000DE0315D08F80410384600F013F94021B6
:1020C000384600F077F80128F9D1641CE4B2AC423C
:1020D000EFD3BDE8F0810000004400404C01002037
:1020E00070B5084D40F225542146284600F069F8A5
:1020F000002806D021462846BDE87040012200F0A5
:102100007FB870BD0038014070B51A4C40F22446CB
:102110003146204600F055F800282AD0204600F02D
:10212000DDF8154D2846FEF7A9FD14490122C0F13E
:1021300014000A70124A4880108841BA0F48001DE6
:102140000180518849BA4180918849BA8180002133
:102150002846FEF715FD14212846FEF7AFFD0121A4
:102160002846FEF70DFD31462046BDE8704000F0E0
:1021700009B870BD004400406C000240000000201F
:10218000380100200A0A01219140C94301807047AB
:102190000029818902D041F4005101E021F400516D
:1021A00081817047002A828A01D00A4300E08A4375
:1021B000828270470246002012880A4200D0012025
:1021C000704770B501F01F0501260024C1F34213CA
:1021D00006FA05F2012B0FD0022B0FD0838A4FEAAB
:1021E00011210088134206FA01F600EA060001D028
:1021F00000B10124204670BD8389F0E7038AEEE731
:1022000010B5C1F3421301F01F040121A140012BBD
:1022100007D0022B07D01430002A026805D00A43E9
:1022200004E00C30F8E71030F6E78A43026010BD96
:1022300030B50446008A85B00D464CF6FF71084063
:10224000E98801432182A0894EF6F3110840A9884C
:102250002A8911436A8902431143A181A08A4FF65A
:10226000FF410840A9890143A1826846FFF72CF984
:102270001948844201D1039800E00298A189090419
:1022800000EBC00101EB0010296801D5490000E016
:102290008900B0FBF1F06422B0FBF2F109010B09F7
:1022A0006FF018056B4300EB8300A3891D044FF00A
:1022B000320306D503EBC000B0FBF2F000F00700DC
:1022C00005E003EB0010B0FBF2F000F00F00084354
:1022D000208105B030BD0000003801408088C0F387
:1022E00008007047C1F3080181807047FEE70000D5
:1022F00010B50B4C01212046FEF719FA02212046A9
:10230000FEF7A3F90028F9D02046FEF79BF940F626
:102310002E61484340F6FF71B0FBF1F080B210BD72
:102320000028014030B587B001210820FFF7B4F83C
:102330000125ADF8145000248DF8174005A91B485D
:10234000FEF7BFFC01218802FFF7A6F84FF46020DA
:10235000CDE902048DF8044000948DF80540144C3A
:102360008DF8105069462046FEF77EF9E803FFF726
:1023700065F80723012208212046FEF799F901217B
:102380002046FEF74EF92046FEF7CCF92046FEF730
:1023900063F90028FAD12046FEF7D3F92046FEF76C
:1023A0004AF90028FAD107B030BD0000000C014006
:1023B000002801400FB4054B10B503A9044A029848
:1023C00000F018F810BC5DF814FB00009D25000813
:1023D0003401002002E008C8121F08C1002AFAD107
:1023E00070477047002001E001C1121F002AFBD195
:1023F000704700002DE9FF4F89B09B460446002539
:1024000006E025280BD05A460B999047641C6D1C9A
:1024100020780028F5D10DB02846BDE8F08F0027C0
:10242000B8460122474900E0074314F8013F203B2A
:1024300002FA03F00842F7D120782E2819D114F8B7
:10244000010F47F004072A280ED06FF02F022078E2
:10245000A0F1300109290CD808EB880102EB4101F9
:1024600000EB0108641CF2E70A98641C50F8048B26
:102470000A9020780028CED0642808D0692806D099
:1024800075281ED05A460B9990476D1C58E00A9942
:102490004FF00A0901C90A91002802DA40422D21B1
:1024A00002E0390504D52B218DF82010012103E02D
:1024B000F90704D02021F7E78A4608AE0DE0002195
:1024C000FAE70A994FF00A0901C90A91F7E7494664
:1024D000FDF7A0FF303106F8011D0028F7D1ADEB64
:1024E000060000F12009780701D44FF00108C84523
:1024F00002DDA8EB090000E000208046002706E08E
:1025000008A85A46C05D0B9990476D1C7F1C574523
:10251000F6DB04E030205A460B9990476D1CB8F169
:102520000001A8F10108F5DC05E016F8010B5A4698
:102530000B9990476D1CB9F10001A9F10109F4DC78
:10254000641C65E709280100FEE7884201DA0846B5
:1025500070479042FCDD10467047884201DA084619
:1025600070479042FCDD1046704700000949012089
:10257000096809B1002070470749CA69002AF9D1E2
:10258000044A896828321268491E8A42F3D102201F
:1025900070470000900200200C00002070B5074D2D
:1025A0000446C1B22846FFF79DFE40212846FFF7AA
:1025B00001FE0028F9D0204670BD0000003801401F
:1025C000FFF7A6F8FEF7C2F801F088F9FEE7000071
:1025D0002DE9F041184E0F460446F5683068001D9D
:1025E00000F04EFD38B9306890F82C10012088407A
:1025F000316981433161601C07D137B13168BDE871
:10260000F0410E48091D00F07BBD30682C44AC42FF
:102610004460316805D2B06BBDE8F041091D00F09F
:1026200057BD706B091D00F053FDB06A844200D2A3
:10263000B462BDE8F08100000C000020B802002068
:102640002DE9F041054600F067FD2E4EB068401CB4
:10265000B06030682C4F10B1706940B32DE0356028
:10266000B068012829D1002404EB840007EB800026
:1026700000F020FD641C082CF6D32348A03000F0A5
:1026800019FD2148B43000F015FD1F48C83000F096
:1026900011FD1D48DC3000F00DFD1B48F03000F04E
:1026A00009FD1948A03070631430B06305E030684C
:1026B000E96AC06A884200D83560706A0121401C0E
:1026C0007062E86A326981401143316100EB800039
:1026D00007EB8000291D00F013FD00F06DFD70690F
:1026E00000280CD03068E96AC06A884207D20749DE
:1026F0004FF080500860BFF34F8FBFF36F8FBDE87E
:10270000F08100000C000020C801002004ED00E072
:1027100010B500F001FD0E4C2068A0B90D4800F086
:10272000C9FC0C48143000F0C5FC0A48E0601430C5
:10273000206100221021052001F004FA206010B170
:1027400005A100F0BFFEBDE8104000F035BD00005F
:1027500048000020CC020020546D7251000000009F
:1027600070B5124E124D1CE001F04EF9306820B1E8
:10277000002401F033FEA4B901E00124F9E700F0E0
:10278000CBFCF068C468201D00F07AFCA868401EED
:10279000A8606868401E686000F00EFD204600F0EA
:1027A00052F868680028DFD170BD0000A402002044
:1027B0000C00002030B4026C0B46002A0BD0C1681C
:1027C0001144C1604468A14201D30168C16030BCBA
:1027D0001846FDF715BD30BC70472DE9F041856BFB
:1027E000174604460026026C82B1C7B1E068FDF7C7
:1027F00007FDE168206C091AE1602268914202D26B
:102800006168081AE060022F16D017E02068A8B9A6
:10281000606801F02BFD0646002060600EE0A068B5
:10282000FDF7EEFC216CA0680844A0606168884256
:1028300004D32068A06001E005B16D1E6D1CA56386
:102840003046BDE8F08110B50446006B00F0E8FCAE
:102850002046BDE8104000F0E3BC00000A4900201B
:102860000A69012A00D901200A68D26A0AB1002047
:102870007047064A1268012AF9D80028F7D1886AF9
:10288000C968401A704700000C000020C8010020F1
:1028900010484FF42051420706D0C01D0D4920F0CA
:1028A0000700411AC1F520510B4A00230144C2E937
:1028B00000030839103A21F0070111604B600B60EA
:1028C0000B1AC0E9001393604FF000405360D060D2
:1028D00070470000F4020020840000200E4C40F6F7
:1028E0008C45FFF73DFFFFF7B9FF0228F9D301F050
:1028F0008BF8A06AE168884204D22A4607A10CA09E
:10290000FFF722FEFFF7AAFF022801D300F01AFD0D
:1029100001F064FDE5E700000C0000202E2E5C466F
:1029200072656552544F535C7461736B732E630010
:10293000784E6578745461736B556E626C6F636B1F
:1029400054696D65203E3D20785469636B436F7513
:102950006E7400002DE9F0470E46DDE909848246D9
:102960006FF00301206B01EB82010844089D20F009
:1029700007079946780705D040F22B3219A11E4867
:10298000FFF7E2FD00202218315C82F83410315C40
:1029900011B1401C1028F6D3002684F84360082D9E
:1029A00000D30725E562C4E91156201D00F08DFB18
:1029B00004F1180000F089FB2461C5F1080064628D
:1029C000A061E66484F850604A465146384600F0FB
:1029D0002FFB2060B8F1000F01D0C8F80040BDE81F
:1029E000F08700002E2E5C4672656552544F535C92
:1029F0007461736B732E6300BC47000830B51149D6
:102A000000E011460A688242FBD34B685C1884429E
:102A100003D1406818444860084643681C18944233
:102A200009D1084C103C2468A24209D052681A44CB
:102A300042600A6812680260814200D0086030BDBE
:102A40000460F9E78400002070B5002441600B4D5C
:102A50000061914206D8D11A8269914206D2011DC5
:102A6000286907E09A4203D2994201D3012403E086
:102A7000011DE86800F02CFB204670BD48000020D6
:102A800010B5044600F048FBA06B20B1002400F014
:102A900093FB204610BD0124F9E700002DE9F34126
:102AA0000F4600980026846C2CB940F6CE1216A171
:102AB0001AA0FFF749FDA06BE16B884205D340F6F1
:102AC000CF1211A11A48FFF73FFDA06BE16B8842BE
:102AD0000CD294F945503A4669462046FFF77DFEF0
:102AE0000646681C05D06D1C84F845503046BDE88C
:102AF000FC81606A0028F9D004F1240001F020FC78
:102B00000028F3D00126F1E72E2E5C46726565524F
:102B1000544F535C71756575652E630070785175FF
:102B2000657565536574436F6E7461696E65720097
:102B300074470008F8B5054613480E46C068C068DB
:102B4000C468201D00F09CFAE069012816D1A06934
:102B50002B46411932462046FFF776FF70B1002020
:102B60000346014600902A46204601F021FD28B97F
:102B70004FF4027205490648FFF7E6FC616A01B0AE
:102B80002046BDE8F04008474800002014450008F2
:102B9000C82D000870B586B0304E54E0019800286A
:102BA00006DADDE90301029A9047019800284ADB22
:102BB000039C606910B1201D00F062FA05A800F0C6
:102BC000B9F8054601980A283DD2DFE800F005056E
:102BD000053C283905053C280298A16903460144B3
:102BE0002A462046FFF730FF00282CD0616A204695
:102BF0008847E069012826D1002000900298A16949
:102C0000002342181946204601F0D2FC00281AD1B0
:102C100040F2213212A118A0FFF796FC13E00298AF
:102C2000A06128B94FF44E720DA115A0FFF78CFCDE
:102C3000A0692B4641191A462046FFF705FF02E01E
:102C4000204600F0EDFA00231A4601A9306800F092
:102C5000B9FF0028A2D106B070BD000048000020D6
:102C60002E2E5C4672656552544F535C74696D65D7
:102C700072732E630000000078526573756C7400E7
:102C80002820707854696D65722D3E7854696D65A1
:102C900072506572696F64496E5469636B73203E4C
:102CA0002030202900000000F8B50D46064600F04F
:102CB000ABFE684600F03EF80446009810B101F003
:102CC0008DFBF8BD1148ADB101690968D9B1002586
:102CD000311B2A46006800F007FC01F07FFB00284A
:102CE000EFD10B494FF080500860BFF34F8FBFF317
:102CF0006F8FF8BDA642EBD801F070FB214630463D
:102D0000FFF718FFF8BD0125E2E7000048000020AA
:102D100004ED00E00648416B096829B1416BC968C0
:102D2000C9684968816270474FF0FF31FAE70000D7
:102D30000C00002070B5054601F010FA064E04465E
:102D4000B068844203D200F009F8012000E00020BE
:102D500028602046B46070BD48000020F8B5184EC9
:102D600025E0C068C4680568201D00F089F9616A23
:102D700020468847E069012819D1A0692844A84263
:102D800006D924616060211DF06800F0A1F90EE011
:102D900000200346014600902A46204601F008FC28
:102DA00028B940F29232074907A0FFF7CDFBF0683F
:102DB00001680029D5D13169C6E90310F8BD0000CA
:102DC000480000201445000878526573756C740043
:102DD00008484068401C04D0F42207A111A0FFF766
:102DE000B3FB502080F31188BFF34F8FBFF36F8F79
:102DF000FEE700005C0000202E2E5C4672656552E6
:102E0000544F535C706F727461626C655C525644CF
:102E1000535C41524D5F434D335C706F72742E634F
:102E2000000000007578437269746963616C4E65D7
:102E30007374696E67203D3D207E30554C00000064
:102E4000084CE068016839B1002139B10020FFF772
:102E50002BFFFFF79FFEF4E70121F6E7C06800684B
:102E6000F5E70000480000202DE9F041044600F09D
:102E700053F994F9455004F1240610E0A06C20B1F8
:102E800000212046FFF70AFE04E0606A48B13046A0
:102E900001F056FA08B100F063FC6D1E6DB2002D12
:102EA000ECDC4FF0FF3684F8456000F085F900F067
:102EB00033F994F9445004F1100709E0206948B14E
:102EC000384601F03DFA08B100F04AFC6D1E6DB2C3
:102ED000002DF3DC84F84460BDE8F04100F06CB9EB
:102EE0002DE9F0410546002600F08EFD314F38688F
:102EF00008B9FFF7CDFCF86805424ED1002D4CD043
:102F0000083568070BD005F00700C0F1080005443C
:102F1000680704D0BF2228A131A0FFF715FBE5B355
:102F20007868854239D8234910310846046801E0A1
:102F3000214604466068A84202D220680028F7D1E2
:102F40003868B846844228D00E68206808606068F7
:102F50000836401B10280ED96719780704D0EC22D8
:102F600015A12B48FFF7F0FA6068401B78603846DF
:102F70006560FFF743FD6168D8F804004246401AD7
:102F8000C8F80400D8F80830984200D29060D8F809
:102F90000C0001430020C4E9000101F01FFA700792
:102FA00005D04FF4967204A11A48FFF7CDFA3046C7
:102FB000BDE8F081740000202E2E5C4672656552DB
:102FC000544F535C706F727461626C655C4D656DDB
:102FD0004D616E675C686561705F342E6300000050
:102FE00028207857616E74656453697A65202620BD
:102FF000706F7274425954455F414C49474E4D457C
:103000004E545F4D41534B2029203D3D2030000060
:10301000B4480008F84800080449086818B108686E
:10302000826C521C82640868704700000C0000200B
:1030300010B5031F4FF080741C601B1F21F00101AD
:103040001960191F024B0B60143940380A6010BD1B
:10305000D12D0008094C4FF47A75284600F066FA25
:10306000E1780648891C2170891C6170891CA17057
:10307000891CE1700421FFF713F8EEE7B800002087
:10308000D0E9013201699A60D0E901235A604A68A7
:10309000824201D182684A60002202610868401EB3
:1030A00008607047502080F31188BFF34F8FBFF343
:1030B0006F8FFEE700F108014FF0FF32C0E9011207
:1030C000C16001610021016070470021016170470A
:1030D00030B50C68621C02D000F1080202E00269FF
:1030E00004E01A4653681D68A542FAD953684B603C
:1030F00099608A60516008610168491C016030BDB7
:1031000042684A6093688B60936859609160086177
:103110000168491C01607047502080F31188BFF39B
:103120004F8FBFF36F8F09494868401C48600128E2
:103130000AD10748006810F0FF0F05D04FF4BD72A8
:1031400004A10FA0FFF700BA704700005C00002048
:1031500004ED00E02E2E5C4672656552544F535CC0
:10316000706F727461626C655C525644535C41527C
:103170004D5F434D335C706F72742E63000000002E
:103180002820706F72744E5649435F494E545F4316
:1031900054524C5F524547202620706F727456453A
:1031A00043544143544956455F4D41534B202920D8
:1031B0003D3D20300000000010B5084C606828B983
:1031C00040F2811206A111A0FFF7BEF96068401E0F
:1031D000606001D180F3118810BD00005C00002008
:1031E0002E2E5C4672656552544F535C706F72743C
:1031F00061626C655C525644535C41524D5F434D75
:10320000335C706F72742E63000000007578437237
:1032100069746963616C4E657374696E6700000060
:1032200070B500282AD0164DA0F108046068E9683E
:10323000084205D14FF4A07212A11CA0FFF784F937
:10324000206828B140F241120EA125A0FFF77CF9B9
:103250006068E968084211D02268002A0ED18843CC
:10326000606000F0D1FB60686968084468602046CF
:10327000FFF7C4FBBDE8704001F0B0B870BD0000BE
:10328000740000202E2E5C4672656552544F535CCC
:10329000706F727461626C655C4D656D4D616E67D7
:1032A0005C686561705F342E6300000028207078D0
:1032B0004C696E6B2D3E78426C6F636B53697A6517
:1032C00020262078426C6F636B416C6C6F63617475
:1032D0006564426974202920213D203000000000EF
:1032E00070784C696E6B2D3E70784E6578744672BE
:1032F0006565426C6F636B203D3D204E554C4C0024
:1033000010B50E484FF47A730D4A00686FF07F4491
:10331000B0FBF3F19160B4FBF1F1D160B0FBF0F1DF
:103320002D24B4FBF1F11161B0FBF3F14FF0E0207B
:10333000491E41610721016110BD0000A00000206D
:103340005C0000202DE9F041324E0446F0688442D2
:1033500000D904464FF0E027386920F001003861B9
:10336000B969B268601E02FB00153069854200D958
:103370002D1A72B6BFF34F8FBFF36F8FFFF7F6F8BA
:1033800008B37D610022BA61386940F001003861FC
:1033900024B1BFF34F8F30BFBFF36F8F386920F078
:1033A0000101396162B6C00319D5B869B168281A3C
:1033B000081A3369401E984201D3884200D9481E3A
:1033C0007861641E15E0B8697861386940F00100E1
:1033D0003861B068401E786162B6BDE8F081B068BF
:1033E000B9694443611AB1FBF0F4631C4343581AB2
:1033F0007861BA61FFF790FE386940F001003861EA
:10340000204600F0C7FAB068401E7861BDE8F04180
:10341000FFF7D2BE5C00002010B5FCF7DBFE104CBD
:1034200010280CD300F1E02090F8F00321788842B6
:1034300005D24FF42A720BA115A0FFF785F81F489B
:103440000068616900F4E060884207D9BDE8104077
:103450004FF42E7203A11A48FFF776B810BD000092
:103460005C0000202E2E5C4672656552544F535C02
:10347000706F727461626C655C525644535C415269
:103480004D5F434D335C706F72742E63000000001B
:10349000756343757272656E745072696F72697488
:1034A00079203E3D2075634D617853797343616C9B
:1034B0006C5072696F726974790000000CED00E065
:1034C0007048000810B5074B002253F832401CB179
:1034D000521C082AF9D310BD43F8321003EBC20185
:1034E000486010BD8801002070B515460E460446A0
:1034F000FFF712FE94F944100020491C01D184F812
:10350000440094F94510491C01D184F84500FFF7A7
:1035100053FEA06B28B92A46314604F1240000F07E
:103520004DF92046BDE87040FFF79EBC10B5040081
:1035300012D00E49096B29B140F2CF420CA111A063
:10354000FFF702F800F060FA00212046FFF740F88C
:1035500000F044FF002807D111494FF08050086067
:10356000BFF34F8FBFF36F8F10BD00000C00002022
:103570002E2E5C4672656552544F535C7461736BBA
:10358000732E630075785363686564756C65725358
:10359000757370656E646564203D3D2030000000E9
:1035A00004ED00E02DE9F0410E4605004FF0000467
:1035B00005D140F279421BA11FA0FEF7C5FF2EB92D
:1035C00040F27A4217A121A0FEF7BEFF254F386BCB
:1035D00028B140F27B4213A123A0FEF7B5FF00F013
:1035E00013FAFA6828688119904202D9884202D8F1
:1035F00004E0884201D8914200D9012429601CB11D
:10360000881A0021FEF7E4FF00F0E8FE002807D149
:103610001C494FF080500860BFF34F8FBFF36F8F8E
:10362000BDE8F0812E2E5C4672656552544F535CA6
:103630007461736B732E6300707850726576696F76
:10364000757357616B6554696D6500002820785467
:10365000696D65496E6372656D656E74203E2030DC
:10366000552029000C000020757853636865647547
:103670006C657253757370656E646564203D3D20A2
:103680003000000004ED00E070B50446FFF744FD93
:10369000244D04B92C68201DFFF7F2FC58B9E06AEC
:1036A000214A00EB800152F8211021B9012181400B
:1036B000286988432861A06A18B104F11800FFF74F
:1036C000DFFC686A401C68622868844208D116489A
:1036D000211DDC30FFF714FD6868401C686007E0BE
:1036E000A868401EA8602046FFF7ADF8FFF712FB60
:1036F000FFF762FD6869002812D0286884420FD164
:10370000286B28B140F2654208A10DA0FEF71CFF0E
:1037100012494FF080500860BFF34F8FBFF36F8F97
:1037200070BD00000C000020C80100202E2E5C4659
:1037300072656552544F535C7461736B732E6300F2
:1037400075785363686564756C65725375737065DD
:103750006E646564203D3D203000000004ED00E013
:1037600001490120C86170470C00002070B50D466A
:10377000040005D140F6063207A10CA0FEF7E4FED6
:103780000D48016820461831FFF7A2FC2846BDE825
:1037900070400121FEF71CBF2E2E5C4672656552FB
:1037A000544F535C7461736B732E6300707845766D
:1037B000656E744C697374000C00002070B514467B
:1037C0000E46050005D140F6313209A10DA0FEF7E5
:1037D000BBFE0F48016828461831FFF791FC0CB179
:1037E0004FF0FF3621463046BDE87040FEF7F0BE90
:1037F0002E2E5C4672656552544F535C7461736B38
:10380000732E630070784576656E744C697374002E
:103810000C00002070B5040039D01D4DE06A296805
:10382000C96A884233D2A069002804DB2868C06ACC
:10383000C0F10800A061E06A164E00EB80006169EB
:1038400006EB800081421FD1201DFFF719FC0121EA
:1038500050B9E06A00EB800256F8222022B92A69AA
:1038600001FA00F082432A612868C06AE0622A698E
:1038700081401143296100EB800006EB8000211D8F
:10388000BDE87040FFF73CBC2868C06AE06270BDCC
:103890000C000020C801002010B5040005D140F63E
:1038A000C13205A109A0FEF74FFE0B48016A216055
:1038B000C068606010BD00002E2E5C4672656552C7
:1038C000544F535C7461736B732E6300707854694A
:1038D0006D654F75740000000C0000201CB5174882
:1038E0000024CDE900402346642215A1164800F0CB
:1038F000FBFB012803D100F027FE01280AD0401C61
:103900001BD102B040F28472BDE810400FA114A098
:10391000FEF71ABE502080F31188BFF34F8FBFF31C
:103920006F8F06484FF0FF312C38816201214161D1
:10393000C460BDE81C4000F0B3B81CBD38000020D6
:1039400049444C4500000000DD2800082E2E5C464E
:1039500072656552544F535C7461736B732E6300D0
:103960007852657475726E20213D20657272434FE6
:10397000554C445F4E4F545F414C4C4F434154456E
:103980005F52455155495245445F4D454D4F52593F
:103990000000000070B5084D0446E868A96A20449C
:1039A000884205D940F6711204A109A0FEF7CCFDAA
:1039B000E8682044E86070BD0C0000202E2E5C46B4
:1039C00072656552544F535C7461736B732E630060
:1039D0002820785469636B436F756E74202B2078B0
:1039E0005469636B73546F4A756D702029203C3D98
:1039F00020784E6578745461736B556E626C6F639A
:103A00006B54696D650000000248016B491C01633D
:103A1000704700000C00002070B5194D286B10B1E4
:103A20000120E86170BD0020E8612868296800680D
:103A3000096B884204D8296828683431FFF732FBC3
:103A40002869104EB0FA80F0C0F11F0000EB80042E
:103A500056F8240028B940F6F6220BA10F48FEF7CD
:103A600073FD06EB840000F108024168496841607B
:103A7000914201D149684160C868286070BD00006A
:103A80000C000020C80100202E2E5C467265655295
:103A9000544F535C7461736B732E630028480008A5
:103AA0001CB51A4908780190FF20087008788DF835
:103AB00000009DF80000164C00F050002070072018
:103AC000606107E06069401E60619DF80000400091
:103AD0008DF800009DF800000006F3D4207D000260
:103AE00000F4E0606061019808700A48016841F4E0
:103AF00070010160016841F070410160FFF700FC56
:103B000000206060FCF730FB00201CBD00E400E0FA
:103B10005C00002020ED00E010B5502080F31188FB
:103B2000BFF34F8FBFF36F8F00F01EFB18B1044936
:103B30004FF080500860002080F3118810BD000015
:103B400004ED00E070B50E46050005D14FF4C472D7
:103B50000EA113A0FEF7F8FCA6B105FB06F04C3051
:103B6000FFF7BEF904000CD004F14C0066B12060F0
:103B7000C4E90F562046012100F0E6F80021204656
:103B8000A16470BD0020EAE72460F1E72E2E5C46B8
:103B900072656552544F535C71756575652E63008F
:103BA000757851756575654C656E677468203E2043
:103BB00028205542617365547970655F742029200F
:103BC000300000002DE9FF4F83B09B468A46040079
:103BD0004FF0000605D140F2DC4251A155A0FEF79E
:103BE000B3FCBAF1000F07D1206C28B140F2DD42DE
:103BF0004BA15248FEF7A8FC00F0A2FA38B905988C
:103C000028B14FF49C6246A14D48FEF79DFC4FF051
:103C100000094FF08057DFF82C81FFF77DFAA56B84
:103C200045B351462046E668FEF7C4FDBBF1000FE0
:103C300013D0E660606A50B104F1240000F080FB0C
:103C400028B1C8F80070BFF34F8FBFF36F8FFFF735
:103C5000B3FA012007B0BDE8F08F6D1EA5632068A0
:103C600010B9FFF7D9F9606020690028EFD004F19E
:103C70001000E3E7059808B11EB106E0FFF79CFAD3
:103C800027E06846FFF708FE0126FFF795FAFFF7E1
:103C9000BBFEFFF741FA94F94400401C01D184F8BF
:103CA000449094F94500401C01D184F84590FFF7F9
:103CB00083FA05A9684600F0CDF9002820460AD00D
:103CC000FFF7D2F800F08AFB2046FEF7D9FE002865
:103CD000A3D00020BEE7FEF7D3FED8B1206830B9EC
:103CE000FFF71AFA6068FFF795FDFFF765FA04F130
:103CF00024000599FFF73AFD2046FFF7B5F800F0DC
:103D00006DFB002889D1C8F80070BFF34F8FBFF357
:103D10006F8F82E72046FFF7A7F800F05FFB7CE794
:103D20002E2E5C4672656552544F535C71756575F5
:103D3000652E630070785175657565002847000829
:103D40003846000804ED00E070B50D46040005D1CA
:103D500040F21B121CA121A0FEF7F6FBFFF7DCF9D5
:103D6000D4E90F20216802FB001161600021A163EA
:103D70002168A1600A46D4E90F01401E00FB012121
:103D8000E16021464FF0FF3001F8440F487004F124
:103D900010004DB1FFF78EF904F12400FFF78AF906
:103DA000FFF70AFA012070BD21690029F8D000F060
:103DB000C7FA0028F4D00B494FF080500860BFF3D9
:103DC0004F8FBFF36F8FEBE72E2E5C467265655207
:103DD000544F535C71756575652E6300707851752D
:103DE0006575650004ED00E02DE9FF4F83B099464D
:103DF0008B4604004FF0000605D140F2D92252A1B3
:103E000056A0FEF7A1FBBBF1000F07D1206C28B133
:103E100040F2DA224CA15348FEF796FBB9F1020FAB
:103E200008D1E06B012805D040F2DB2246A14E48C4
:103E3000FEF78AFB00F084F938B9059828B140F202
:103E4000DE2241A14948FEF77FFB4FF0000A4FF008
:103E50008057DFF81C81FFF75FF9A06BE16B8842A8
:103E600006D3B9F1020F03D0059800B316B325E0CD
:103E70004A4659462046FEF7B0FCA16C21B149469E
:103E80002046FEF70BFE05E0616A19B104F124003B
:103E900000F056FA28B1C8F80070BFF34F8FBFF397
:103EA0006F8FFFF789F9012007B0BDE8F08FFFF7AA
:103EB00083F921E06846FFF7EFFC0126FFF77CF964
:103EC000FFF7A2FDFFF728F994F94400401C01D147
:103ED00084F844A094F94500401C01D184F845A021
:103EE000FFF76AF905A9684600F0B4F830B120463A
:103EF000FEF7BAFF00F072FA0020D5E7FFF70CF9E1
:103F0000A06BE16B884201D1012500E00025FFF79D
:103F100053F995B104F110000599FFF727FC2046ED
:103F2000FEF7A2FF00F05AFA002894D1C8F80070FA
:103F3000BFF34F8FBFF36F8F8DE72046FEF794FFDF
:103F400000F04CFA87E700002E2E5C467265655241
:103F5000544F535C71756575652E630070785175AB
:103F600065756500D8460008904600083846000888
:103F700004ED00E02DE9F047984615468946040017
:103F800005D140F29F322AA12EA0FEF7DDFAB9F149
:103F9000000F07D1206C28B14FF4687224A12B4880
:103FA000FEF7D2FAB8F1020F08D1E06B012805D074
:103FB00040F2A1321EA12648FEF7C6FAFFF72CFAFE
:103FC0005020EFF3118780F31188BFF34F8FBFF3B9
:103FD0006F8FA06BE16B884207D3B8F1020F04D05A
:103FE000002087F31188BDE8F08794F945604246C8
:103FF00049462046FEF7F1FB701C04D0761C84F87D
:1040000045600120EDE7A06C012620B14146204625
:10401000FEF744FD06E0606A0028F2D004F12400B7
:1040200000F08EF90028ECD0002DEAD02E60E8E7F1
:104030002E2E5C4672656552544F535C71756575E2
:10404000652E63007078517565756500D846000867
:104050009046000870B50D46040005D140F6CB32FD
:1040600014A119A0FEF770FA2DB940F6CC3211A1B7
:1040700018A0FEF769FAFFF74FF81A4AD0682968C6
:104080004B1C0FD02368126A934202D062688242AE
:104090000AD96268801A884206D2081A2860204627
:1040A000FFF7FAFB002400E00124FFF785F8204623
:1040B00070BD00002E2E5C4672656552544F535CF5
:1040C0007461736B732E6300707854696D654F75FE
:1040D0007400000070785469636B73546F576169A2
:1040E000740000000C0000202DE9FF5F8346DDE92D
:1040F0000E87994616468A469000FEF7F1FE0500A7
:104100001AD05420FEF7ECFE040012D025630021E3
:10411000CDE90241CDE900874B463246514658462B
:10412000FEF718FC2046FEF78BFA012004B0BDE82C
:10413000F09F2846FFF774F84FF0FF30F6E70000D5
:104140000548416919B1006B18B100207047012082
:1041500070470220704700000C0000200148C06832
:10416000704700000C0000202DE9F0412D4F002683
:10417000386B40B1B869401CB861F86900B10126DC
:104180003046BDE8F081FD686D1CFD6011D1786B93
:10419000006828B140F6D91223A128A0FEF7D4F96F
:1041A000786BB96B7963B863386A401C3862FEF784
:1041B000B1FDB86ADFF8B080854209D3786B00683A
:1041C00080B1786BC068C468606885420DD2B862FF
:1041D0003868C06A00EB800158F821000128CCD96A
:1041E0000126CAE74FF0FF30F1E7201DFEF748FF38
:1041F000A06A18B104F11800FEF742FFE06A01213D
:104200003A6981401143396100EB800108EB81007C
:10421000211DFEF775FFE06A3968C96A8842CDD36F
:104220000126CBE70C0000202E2E5C4672656552FD
:10423000544F535C7461736B732E630028206C6958
:1042400073744C4953545F49535F454D505459283A
:1042500020707844656C617965645461736B4C6956
:104260007374202920290000C801002070B50400C3
:104270004FF000063CD01F4D2868844205D040F620
:10428000C7621DA121A0FEF75FF9A06C28B940F616
:10429000C96219A123A0FEF757F9A06C401EA064C3
:1042A000626CE16A914223D010BB201DFEF7E8FE4C
:1042B0002249012250B9E06A00EB800351F8233013
:1042C00023B92B6902FA00F083432B61606CE06232
:1042D000C0F10800A061E06A2B6982401A432A619C
:1042E00000EB800001EB8000211DFEF709FF012695
:1042F000304670BD0C0000202E2E5C467265655263
:10430000544F535C7461736B732E63007078544325
:1043100042203D3D20707843757272656E7454433F
:104320004200000070785443422D3E75784D7574FC
:104330006578657348656C6400000000C801002062
:104340002DE9F041C068C4682CB940F6613218A16B
:104350001CA0FEF7F9F804F118000746FEF790FEDE
:104360001C4D286B012658B139461B48FEF7C8FE84
:10437000E06A2968C96A884213D90124EE6111E014
:10438000201DFEF77DFEE06A2A6906FA00F111435E
:104390002961114900EB8000C83901EB8000211D23
:1043A000E4E70024FEF7B6FC2046BDE8F0810000FB
:1043B0002E2E5C4672656552544F535C7461736B6C
:1043C000732E63007078556E626C6F636B65645416
:1043D000434200000C000020900200202DE9F0472D
:1043E0002B4D00242746286B28B94FF4FD6229A1E4
:1043F0002DA0FEF7A9F8FEF78FFE286B401E28635C
:10440000286BE8BBA8682E490126C8B3A1F1C809EA
:104410008846D8F80010E9B1D8F80C00C46804F157
:104420001800FEF72DFE201DFEF72AFEE06A2A691D
:1044300006FA00F11143296100EB800109EB8100CC
:10444000211DFEF75DFEE06A2968C96A8842E0D353
:10445000EE61DEE70CB1FEF75DFCAC693CB1FFF745
:1044600083FE00B1EE61641EF9D10020A861E86905
:1044700030B11449012738070860BFF34F8F00E0BF
:1044800001E0BFF36F8FFEF797FE3846BDE8F08777
:104490000C0000202E2E5C4672656552544F535C12
:1044A0007461736B732E630075785363686564750C
:1044B0006C657253757370656E646564000000000E
:1044C0009002002004ED00E02DE9F04707469946F0
:1044D00016460D462820DDF820A0FEF701FD040059
:1044E00014D0B8464F46D1462DB94FF4C67209A133
:1044F0000EA0FEF729F8FEF70BF904F11801C4F835
:10450000008081E8E002201DFEF7DFFD2046BDE8C7
:10451000F08700002E2E5C4672656552544F535C46
:1045200074696D6572732E63000000002820785452
:10453000696D6572506572696F64496E5469636B29
:1045400073203E20302029001CB50024FEF7E0F83F
:104550000B48006860B10A490720091DCDE9000138
:104560000023642207A10948FFF7BEFD040005D11E
:1045700040F2331206A10CA0FDF7E6FF20461CBD59
:1045800048000020546D722053766300412E0008CD
:104590002E2E5C4672656552544F535C74696D658E
:1045A00072732E63000000007852657475726E009D
:1045B0002DE9FF479946DDF830A090460D460600EC
:1045C0004FF0000705D14FF4D37212A117A0FDF7E9
:1045D000BBFF184C206880B1CDE900580296062D2B
:1045E00011DAFFF7ADFD02284FF0000309D00022D9
:1045F00069462068FFF7F8FB074604B03846BDE877
:10460000F0875246F4E700234A466946FFF7B2FCBA
:10461000F2E700002E2E5C4672656552544F535CE3
:1046200074696D6572732E63000000007854696DC3
:10463000657200004800002021282028207854615D
:10464000736B4765745363686564756C6572537406
:104650006174652829203D3D207461736B53434884
:104660004544554C45525F53555350454E4445447F
:104670002029202626202820785469636B73546FE4
:104680005761697420213D20302029202900000035
:10469000212820282078436F7079506F73697469DE
:1046A0006F6E203D3D2071756575654F56455257BB
:1046B00052495445202920262620282070785175FB
:1046C0006575652D3E75784C656E67746820213D73
:1046D0002031202920290000212820282070764917
:1046E00074656D546F5175657565203D3D204E555F
:1046F0004C4C20292026262028207078517565757D
:10470000652D3E75784974656D53697A6520213D44
:104710002028205542617365547970655F742029A3
:104720002030552029202900212820282070764279
:104730007566666572203D3D204E554C4C20292003
:104740002626202820707851756575652D3E757870
:104750004974656D53697A6520213D2028205542B2
:10476000617365547970655F742029203055202964
:104770002029000070785175657565536574436F25
:104780006E7461696E65722D3E75784D65737361E7
:1047900067657357616974696E67203C2070785152
:1047A00075657565536574436F6E7461696E657286
:1047B0002D3E75784C656E677468000028202820AF
:1047C0002820706F7274504F494E5445525F5349C0
:1047D0005A455F545950452029207078546F704FC6
:1047E00066537461636B2026202820706F727450AA
:1047F0004F494E5445525F53495A455F54595045AD
:10480000202920706F7274425954455F414C4947CA
:104810004E4D454E545F4D41534B2029203D3D2088
:1048200030554C20290000006C6973744355525276
:10483000454E545F4C4953545F4C454E47544828AD
:1048400020262820707852656164795461736B73F7
:104850004C697374735B207578546F705072696F14
:1048600072697479205D20292029203E20300000C3
:104870002820706F727441495243525F524547205D
:104880002620706F72745052494F524954595F47F5
:10489000524F55505F4D41534B2029203C3D2075D0
:1048A0006C4D617850524947524F555056616C7566
:1048B0006500000028202820282073697A655F742D
:1048C00020292070784E6577426C6F636B4C696E5F
:1048D0006B2029202620706F7274425954455F4125
:1048E0004C49474E4D454E545F4D41534B20292076
:1048F0003D3D20300000000028202820282073693A
:104900007A655F74202920707652657475726E2006
:1049100029202620282073697A655F742029207059
:104920006F7274425954455F414C49474E4D454E54
:10493000545F4D41534B2029203D3D203000000065
:10494000604900080000002038010000CC05000884
:104950008449000838010020C02D0000E42300082D
:1049600001601AAA01012845020406082D0102036C
:104970000404150607080984A24A047914011503E2
:044980006C4842003D
:0400000508000131BD
:00000001FF
