:020000040800F2
:10000000802E0020DD010008EB090008E709000848
:10001000E909000809080008CD10000800000000E8
:100020000000000000000000000000004501000882
:10003000490900080000000089010008D50B0008EC
:10004000F7010008F7010008F7010008F7010008B0
:10005000F7010008F7010008F7010008F7010008A0
:10006000F7010008F7010008F7010008F701000890
:10007000F7010008F7010008F7010008F701000880
:10008000F7010008F7010008F7010008F701000870
:10009000F7010008F7010008F7010008F701000860
:1000A000F7010008F7010008F7010008F701000850
:1000B000F7010008F7010008F7010008F701000840
:1000C000F7010008F7010008F7010008F701000830
:1000D000F7010008510E0008790E0008F70100082A
:1000E000F7010008F7010008F7010008F701000810
:1000F000F7010008F7010008F7010008F701000800
:10010000F7010008F7010008F7010008F7010008EF
:10011000F7010008F7010008F7010008F7010008DF
:10012000F7010008F7010008F7010008F7010008CF
:10013000DFF80CD000F0C8FA00480047191A000890
:10014000802E0020224B19680868B0E8F00F80F379
:100150000988BFF36F8F4FF0000080F311884EF0D5
:100160000D0E70470000000006480068006880F32C
:10017000088862B661B6BFF34F8FBFF36F8F00DFA1
:1001800000BF00BF08ED00E0EFF30980BFF36F8F01
:100190000F4B1A6820E9F00F106008B54FF05000BF
:1001A00080F31188BFF34F8FBFF36F8F02F032FEE1
:1001B0004FF0000080F31188BDE808401968086816
:1001C000B0E8F00F80F30988BFF36F8F704700BF6E
:1001D0000C000020EFF305807047000006488047C0
:1001E00006480047FEE7FEE7FEE7FEE7FEE7FEE71C
:1001F000FEE7FEE7FEE7FEE7E90B00083101000835
:1002000040EA01039B0703D009E008C9121F08C098
:10021000042AFAD203E011F8013B00F8013B521E18
:10022000F9D27047C10F80EAE0700844CA079623EC
:10023000002100F063B800F0004230F000400AD026
:10024000C10D01F56071C0F3160042EA0151C20808
:1002500040071143704700200146704730B50B46F8
:10026000014600202022012409E021FA02F59D42E6
:1002700005D303FA02F5491B04FA02F52844151EBA
:10028000A2F10102F1DC30BD2DE9F05F054600204E
:1002900092469B4688460646814640241BE02846F7
:1002A00041464746224600F030FA53465A46C01AA5
:1002B000914110D311461846224600F017FA2D1A24
:1002C00067EB01084F4622460120002100F00EFA9C
:1002D00017EB00094E41201EA4F10104DFDC484663
:1002E00031462A464346BDE8F09F0029A8BF704723
:1002F000401C490008BF20F00100704710B4B0FA5C
:1003000080FC00FA0CF050EA010404BF10BC7047F6
:1003100049B1CCF1200421FA04F411FA0CF118BF10
:10032000012121430843A3EB0C01CB1D4FEA0061DF
:100330004FEA102042BF002010BC704700EBC350B2
:1003400010440029A4BF10BC7047401C490008BFDE
:1003500020F0010010BC70472DE9FE4F804681EA75
:100360000300C00F0C46009021F0004123F000452F
:10037000B8EB0200A94105D24046214690461C46F2
:100380000B46024623F00040104347D0270DC7F329
:100390000A00C3F30A510290401A019040286BDA18
:1003A000C3F3130040F4801B0098924620B1002351
:1003B000D2EB030A63EB0B0B01985946C0F14002E4
:1003C000504600F093F906460D4650465946019AAC
:1003D00000F0ABF910EB08006141002487EA1152EC
:1003E00084EAE7731A4340D0009A62B3019A012A63
:1003F0004FEA075215DC001B61EB02014FF000428F
:1004000002EA0752CDE90042001C41F58011324654
:100410002B4600F0ABF903B0BDE8F08F4046214613
:10042000F9E7001B61EB0201001C41F58013001885
:100430005B412018A2F5001747EB030140EAD57095
:10044000B6196D4111E06D084FEA360645EAC075F0
:100450004FEA0752001B61EB0201001C41F58011BD
:1004600049084FEA30000019514132462B4603B08B
:10047000BDE8F04F00F06BB9009801224000002366
:10048000D0EB020263EBE073009821464FEAE07480
:10049000B8EB000061EB0401E9E783F000435BE7A0
:1004A00081F0004158E72DE9FE4F81EA030404F092
:1004B000004421F0004100944FF0000B23F0004372
:1004C00050EA01045ED052EA03045BD0C3F30A543D
:1004D000C1F30A552C44A4F2F3340194A0FB025456
:1004E000C1F3130141F48011C3F3130343F48013E8
:1004F00001FB024400FB034E840A970A44EA81543C
:1005000047EA8357A4FB076802958D0A05FB078518
:100510004FEA932C04FB0C542705029D4FEA065822
:1005200047EA1637B5EB08056EEB070C870E920EFF
:1005300047EA811742EA8312A7FB0201B6EB0B01DF
:1005400064EB00042B0D43EA0C335E1844EB1C50A3
:10055000DA465146E7FB0201C5F313044FEA0B33B9
:1005600043EA14534FEA0432019C43EA0603A4F120
:100570000C040294009CCDE900B400F0F7F803B03D
:10058000BDE8F08F00200146F9E72DE9F04D81EA42
:10059000030404F0004B21F0004514464FF0000A1C
:1005A00023F0004150EA050220D054EA01021DD098
:1005B000C5F30A570246C5F31303C1F31300C1F391
:1005C0000A5640F4801543F48013A7EB0608101B6D
:1005D000D64608F2FD3873EB050002D308F1010896
:1005E00001E092185B41B8F1000F03DA00200146E8
:1005F000BDE8F08D00204FF48011064684460EE0E1
:10060000171B73EB050705D3121B63EB05030643AA
:100610004CEA010C49084FEA300092185B4150EA5D
:100620000107EDD152EA030012D082EA040083EA06
:100630000501084305D0101BAB4106D2012200235F
:1006400006E000224FF0004302E06FF00102531079
:100650001AEB06004CEB085110EB0A0041EB0B01C2
:10066000BDE8F04D00F073B8C1F30A52C1F31301B5
:1006700040F2FF3341F480119A4202DA0020014631
:10068000704740F233439A42A2F2334202DC5242B4
:1006900000F03BB800F02AB830B5041E71F1000438
:1006A00004DB4FF00044404264EB0101141E73F17F
:1006B000000405DB1C464FF00043524263EB040389
:1006C000994208BF904230BD064C074D06E0E068F5
:1006D00040F0010394E8070098471034AC42F6D389
:1006E000FFF72AFD3C3D00085C3D0008202A04DBA2
:1006F000203A00FA02F1002070479140C2F1200335
:1007000020FA03F3194390407047202A04DB203A73
:1007100021FA02F00021704721FA02F3D040C2F121
:1007200020029140084319467047202A06DBCB1768
:10073000203A41FA02F043EAE07306E041FA02F39C
:10074000D040C2F12002914008431946704710B5CD
:10075000141E73F1000408DA401C41F100019218E4
:100760005B411A4301D120F0010010BD2DE9F04D8D
:1007700092469B4611B1B1FA81F202E0B0FA80F2E2
:1007800020329046FFF7B2FF04460F4640EA0A00C7
:1007900041EA0B0153465A46084313D0114653EA27
:1007A000010019D0C8F140025046FFF7AEFF0546E0
:1007B0000E46504659464246FFF798FF084305D07B
:1007C000012004E020463946BDE8F08D00200543B5
:1007D00046EAE0762C4337430A986305E40AA0EB27
:1007E00008000022FD0A44EA47540A3002D50020DE
:1007F0000146E9E7010510196941DDE908450019DD
:100800006941BDE8F04DA2E7FEE70029016802D08A
:1008100041F0010102E04FF6FE72114001607047A5
:1008200001684FF6FE7211400160002101604160D5
:100830008160C1603149314A0839904203D148682A
:1008400040F00F0006E02D4A1432904204D148686F
:1008500040F0F00048607047284A2832904203D1A7
:10086000486840F47060F5E7244A3C32904203D176
:10087000486840F47040EDE7204A5032904203D17E
:10088000486840F47020E5E71C4A6432904203D186
:10089000486840F47000DDE7184A7832904203D18E
:1008A000486840F07060D5E7154A111F904203D1A7
:1008B000086840F00F0006E0114A1432904204D15B
:1008C000086840F0F000086070470D4A28329042F6
:1008D00003D1086840F47060F5E7094A3C32904261
:1008E00003D1086840F47040EDE7054A5032904269
:1008F000EAD1086840F47020E5E7000008000240F3
:1009000008040240406880B2704730B5026847F67C
:10091000F0739A430C6A8B682343D1E904452C4356
:1009200023438C692343CC6923434C6A23438C6A59
:10093000234313430360CA6842600A6882604968BF
:10094000C16030BD416070477047F0B5CC7800227F
:1009500004F00F03E40601D58C7823430C784FF0A4
:100960000F0C14F0FF0F4FF0010E1BD005680E881E
:100970000EFA02F42640A64210D196000CFA06F7B1
:1009800025EA070703FA06F5CE783D43282E02D064
:10099000482E02D002E0446100E00461521C082AA3
:1009A000E5D305600A88FF2A1CD94468002202F1B9
:1009B00008060EFA06F50E882E40AE420ED19600BD
:1009C0000CFA06F7BC4303FA06F7CE783C43282E10
:1009D00000D14561CE78482E00D10561521C082A0D
:1009E000E5D34460F0BDFEE7FEE7704730B50F2366
:1009F000C27801780125F2B1144A126801F1E021B0
:100A000002F4E062C2F5E062120AC2F10404D340CB
:100A10004278A24084781C401443220181F80024CB
:100A2000007800F01F018D404009800000F1E020B7
:100A3000C0F8005130BD01F01F008540480980001A
:100A400000F1E020C0F8805130BD00000CED00E066
:100A5000044A0029516901D0014300E081435161FA
:100A60007047000000100240044A0029D16901D0FB
:100A7000014300E08143D161704700000010024053
:100A8000044A0029916901D0014300E0814391614A
:100A9000704700000010024030B5204A5168204BDA
:100AA00011F00C0103D0042901D0082901D0036002
:100AB00012E05168536801F470114FF0020413F40E
:100AC000803F04EB914102D053689B0301D5154B45
:100AD00000E0134B5943016051680F2303EA1111E1
:100AE000114B5C5C0168E14041605468072505EAF0
:100AF00014241C5D21FA04F48460546805EAD424AB
:100B00001B5DD940C1605268032303EA9232064B51
:100B10001B1F9A5CB1FBF2F1016130BD0010024075
:100B200000127A0000093D00900000200CB5002260
:100B3000264800920192016841F4803101604FF42F
:100B4000A063016801F4003101910099491C0091F2
:100B5000019911B900999942F3D10168890333D5FC
:100B6000012101911A490A6842F010020A600A68DC
:100B700022F003020A600A6842F002020A60416839
:100B8000416041684160416841F480614160416871
:100B900021F47C114160416841F4E8114160016831
:100BA00041F08071016001688901FCD5416821F044
:100BB00003014160416841F0020141604168C1F3B5
:100BC00081010229FAD10CBD01920CBD0010024036
:100BD0000020024010B502F0B1FC012803D0BDE8AE
:100BE000104002F097B910BD0F4810B5016841F0F0
:100BF0000101016041680D4A1140416001680C4AE1
:100C000011400160016821F480210160416821F4F4
:100C1000FE0141604FF41F018160FFF787FF054926
:100C20004FF00060086010BD001002400000FFF8A7
:100C3000FFFFF6FE08ED00E030B5044687B0012165
:100C40000420FFF71DFF01218803FFF719FF4FF470
:100C50000071ADF8101018218DF8131003201E4DEF
:100C60008DF8120004A92846FFF76FFE2815ADF88D
:100C7000100004218DF8131004A92846FFF765FE23
:100C80000020ADF804000094ADF80600ADF80800AF
:100C9000ADF80C000C20114CADF80A006946204656
:100CA00000F0B6F925218DF8141002208DF81500FA
:100CB00001218DF816108DF8171005A8FFF796FE84
:100CC000012240F22551204600F08AF901212046F8
:100CD00000F04EF907B030BD000801400038014077
:100CE00010B501218CB00846FFF7B2FE104C20462B
:100CF000FFF796FD0F4800900F480021CDE9010154
:100D00001420CDE903018020CDE905012020CDE9A3
:100D100007104FF44050CDE9090169462046FFF71E
:100D2000F4FD01212046FFF770FD0CB010BD00005E
:100D30006C00024004440040B800002070B5044636
:100D400086B001210420FFF79BFE0425ADF810506A
:100D500018208DF813000320234E8DF8120004A9EB
:100D60003046FFF7F2FD0820ADF810008DF8135063
:100D700004A93046FFF7E9FD01214804FFF774FE9E
:100D80000020ADF804000094ADF80600ADF80800AE
:100D9000ADF80C000C20154CADF80A006946204651
:100DA00000F036F926218DF8141002208DF8150078
:100DB00001218DF816108DF8171005A8FFF716FE03
:100DC000012240F22441204600F00AF9012240218C
:100DD000204600F0D7F8FFF783FF0121204600F0FE
:100DE000C7F806B070BD0000000801400044004094
:100DF0002DE9F0410F46804600240D4E0D4D12E0C6
:100E000018F804102955304600F05CF92A5D214697
:100E100009A000F05DF94021304600F0BBF8012840
:100E2000F9D1641CE4B2BC42EAD3BDE8F081000011
:100E300000440040D800002073656E642064617433
:100E4000615B25645D3A20256420200D0A000000C6
:100E500070B5084D40F225542146284600F0A1F80F
:100E6000002806D021462846BDE87040012200F047
:100E7000B7B870BD003801402DE9FF5F2C4C40F23F
:100E8000244B5946204600F08CF800284DD0A1464E
:100E9000204600F013F9DFF89CA05046FFF732FD22
:100EA00025490122254DC0F114000A704880288888
:100EB00040BA00B2FFF7B6F905F11404804620608D
:100EC000688840BA00B2FFF7ADF906466060A888AE
:100ED00040BA00B2FFF7A6F9A060FFF7ACF90446EC
:100EE0000D463046FFF7A7F906460F464046FFF786
:100EF000A2F902460B4612A0CDE90245CDE90067F2
:100F000000F0E6F800215046FFF77FFC1421504620
:100F1000FFF718FD01215046FFF777FC04B0594652
:100F20004846BDE8F05F00F01DB8BDE8FF9F000037
:100F3000004400406C00024008000020B80000207F
:100F400073706565645F74617267657420783A25B3
:100F5000662C20793A25662C207A3A2566200D0ADF
:100F6000000000000A0A01219140C9430180704736
:100F70000029818902D041F4005101E021F400519F
:100F800081817047002A828A01D00A4300E08A43A7
:100F9000828270470246002012880A4200D0012057
:100FA000704770B501F01F0501260024C1F34213FC
:100FB00006FA05F2012B0FD0022B0FD0838A4FEADD
:100FC00011210088134206FA01F600EA060001D05A
:100FD00000B10124204670BD8389F0E7038AEEE763
:100FE00010B5C1F3421301F01F040121A140012BF0
:100FF00007D0022B07D01430002A026805D00A431C
:1010000004E00C30F8E71030F6E78A43026010BDC8
:1010100030B50446008A85B00D464CF6FF71084095
:10102000E98801432182A0894EF6F3110840A9887E
:101030002A8911436A8902431143A181A08A4FF68C
:10104000FF410840A9890143A1826846FFF724FDBA
:101050001948844201D1039800E00298A18909044B
:1010600000EBC00101EB0010296801D5490000E048
:101070008900B0FBF1F06422B0FBF2F109010B0929
:101080006FF018056B4300EB8300A3891D044FF03C
:10109000320306D503EBC000B0FBF2F000F007000E
:1010A00005E003EB0010B0FBF2F000F00F00084386
:1010B000208105B030BD0000003801408088C0F3B9
:1010C00008007047C1F3080181807047FEE7000007
:1010D0000FB4054B10B503A9044A029800F0DAF8E2
:1010E00010BC5DF814FB0000F5190008B4000020E6
:1010F00002E008C8121F08C1002AFAD170477047E1
:10110000002001E001C1121F002AFBD1704700003E
:101110002DE9FF5F82B00021DDE90430020DDDF82A
:1011200040B0034318D044F61050A2F2FF324243BD
:101130001514119801281FD0A5EB0B00401C5FEA85
:10114000000A4FF000064E4FDFF83891B046504687
:1011500015D5CAF1000413E0119801244AA301280F
:1011600001D16FEA0B010298119AC0E90031C0E980
:10117000024206B0BDE8F09FCBF10000DFE7044675
:101180000021404A491842EB0450CDE9001012E01A
:10119000E00707D032463B4640464946FFF783F911
:1011A0008046894632463B4610461946FFF77BF992
:1011B00006460F466410002CEAD1DDE90401DDE9A2
:1011C0000023BAF1000F06DAFFF76DF942464B46ED
:1011D000FFF769F905E0FFF7D8F942464B46FFF7FC
:1011E000D4F904460E460022284BFFF755FA03D8DF
:1011F0004FF0FF30014607E00022254B20463146E4
:10120000FFF7AAF8FFF730FA102409E0002C0ADBF8
:101210000A220023FFF738F8039B30321A55641E68
:1012200050EA0102F2D1641C039AC4F11103144480
:10123000119A012A03D0012208430DD10AE0084384
:1012400004D000204FF0110B119072E7A3EB0B05B7
:101250006D1E0DE05B4504DD4FF0000205F1010558
:1012600004E003DA4FF00002A5F10105002AECD0FA
:1012700002981199C0E90231C0E9004579E7000000
:10128000000014400000F03F300000000000F04378
:101290000000E03F2DE9FF4F95B09B46894606468A
:1012A00000250FE2252877D100242746F84A01219E
:1012B000059400E0044316F8013F203B01FA03F0D7
:1012C0001042F7D130782A2811D06FF02F033078F0
:1012D000A0F13002092A16D8059A44F0020402EB64
:1012E000820203EB42021044761C0590EFE759F8A6
:1012F000042B0592002A03DA504244F4005405906E
:1013000044F00204761C30782E2816D116F8010F0E
:1013100044F004042A280DD06FF02F023078A0F199
:101320003003092B09D807EB870302EB4303C718E7
:10133000761CF3E759F8047B761C30786C280FD0C4
:1013400006DC4C2817D068280DD06A2814D104E098
:10135000742810D07A280FD10DE044F400140AE06C
:1013600044F4801401E044F440147278824202D1C3
:1013700004F58014761C761C307866280BD013DCBC
:10138000582877D009DC002875D04528F6D04628A3
:10139000F4D047281AD19DE118E0632835D064289D
:1013A00079D0652812D195E1702873D008DC6728C0
:1013B000F1D069286FD06E280DD06F2806D1B5E026
:1013C00073282CD0752875D0782874D05A46179970
:1013D00090476D1C75E1C4F30250022809D0032820
:1013E0000DD0D9F8001004280DD00D6009F10409C2
:1013F00067E1D9F80010EA17C1E90052F6E7D9F819
:1014000000100D80F2E70D70F0E719F8041B8DF85D
:10141000001000208DF80100EA46012003E059F891
:1014200004AB4FF0FF3061074FF0000102D40DE034
:1014300008F101018846B9420FDA8045F8DB1AF855
:1014400008100029F4D108E008F101018846814222
:10145000FADB1AF808100029F6D105985B46A0EBD4
:10146000080721463846179A00F094FA284400EB02
:10147000080507E04DE029E10DE01AF8010B5A4696
:1014800017999047B8F10108F7D25B4621463846D4
:10149000179A13E142E00A220092C4F302524FF07D
:1014A000000A022A08D059F804CB032A4FEAEC714B
:1014B0000AD00DE029E02AE009F1070121F0070236
:1014C000F2E802C1914609E00FFA8CFC4FEAEC7198
:1014D000042A03D14FFA8CFC4FEAEC71002907DA99
:1014E0000A460021DCF1000C61EB02012D2202E032
:1014F000220504D52B228DF80420012203E0E20707
:1015000001D02022F7E7904659E00A2102E010229C
:101510000DE010214FF0000A00910BE010224FF077
:10152000000A44F004040827009203E008224FF068
:10153000000A0092C4F30252022A05D059F804CBE3
:101540000021032A08D009E009F1070121F0070270
:10155000F2E802C1914605E01FFA8CFC042A01D191
:101560000CF0FF0C4FF00008220728D5702806D099
:10157000009B83F0100353EA0A0305D00EE04022DB
:101580008DF80420012208E05CEA010206D0302236
:101590008DF804208DF8050002229046009B83F010
:1015A000080353EA0A030AD15CEA010201D1620787
:1015B00005D530228DF804204FF001087F1E5828F1
:1015C00004D034A003900EA802900DE036A0F9E7F5
:1015D00053466046009AFEF757FE84460398825CA5
:1015E0000298401E029002705CEA0100F0D102985D
:1015F00006A9081A00F1200A600702D524F48034F5
:1016000000E00127574502DDA7EB0A0000E00020BB
:1016100000EB0A01009005984144401A0590E00350
:1016200006D45B462146179A059800F0B3F90544A5
:10163000002706E001A85A46C05D179990476D1C27
:101640007F1C4745F6DBE0030CD55B462146179A25
:10165000059800F09FF9054404E030205A46179998
:1016600090476D1C0099481E00900029F5DC08E0A9
:10167000029802995A460078491C0291179990479E
:101680006D1CBAF10001AAF1010AF1DC65E100006C
:101690000928010030313233343536373839616248
:1016A000636465660000000030313233343536370C
:1016B00038394142434445460000000000F058F9E3
:1016C0000544761C307800287FF4ECAD19B028462C
:1016D000BDE8F08F620700D4062709F1070222F067
:1016E000070CFCE80223E14603F000485FEA080C1F
:1016F00002D00FF2702C0DE05FEA045C02D50FF20D
:10170000682C07E05FEAC47C02D00FF2602C01E095
:10171000AFF2700C4FF0FF3823F00043CDF850C00B
:1017200065280CD006DC452809D046281DD047285E
:101730003DD13DE0662818D067287ED138E00021F1
:10174000112F01DB112000E0781CCDE9000106A972
:101750000EA8FFF7DDFCDDE90F010E9A03910021D1
:10176000009207F1010A04914DE04FF0004000970C
:10177000CDE9011006A90EA8FFF7CAFCDDE90F02AA
:1017800003920E9B11990022DDF80CA000930492A5
:1017900011B9791C00EB010AB7EB0A0004D4C0F1BF
:1017A000FF3007F1010A0490AAEB0700019044E022
:1017B000012F00DA01270021112F01DD112000E0A7
:1017C0003846CDE9000106A90EA8FFF7A1FCDDE926
:1017D0000F010E9A0391002104910092BA4621074D
:1017E0000CD40399514500DA8A46BAF1010F05DDA0
:1017F000009AAAF10101515C302908D0B84202DAFE
:1018000010F1040F06DA0121CDE9011015E0AAF16B
:101810000101E9E7002805DC049901440491AAEBE1
:10182000000102E0411C514500DD8A460499401A3E
:10183000401C01904FF000400290200704D4019812
:10184000504501DBCDF8048000208DF84F00029850
:101850000DF14F07B0F1004F25D02B200E900298CC
:101860004FF0020800280CDA404202902D200E9022
:1018700007E00A210298FEF7F1FC3031029007F8E8
:10188000011DB8F10001A8F10108F2DC029800285E
:10189000EFD1791E0E980870307800F0200040F0EB
:1018A000450007F8020D12A8C01B00F107081498A4
:1018B000007800B1012000EB0A01019801EBE07112
:1018C00005984144401A401E0590E00306D45B464B
:1018D0002146179A059800F05DF8054414980078A1
:1018E00018B15A46179990476D1CE00324D55B4602
:1018F0002146179A059800F04DF805441CE004981D
:10190000002807DBDDE90301884203DD0098405C25
:10191000179901E0179930205A469047049805F12D
:101920000105401C04900198401E019004D12E2016
:101930005A46179990476D1CBAF10001AAF1010AA5
:10194000DDDC05E017F8010B5A46179990476D1C2E
:10195000B8F10001A8F10108F4DC5B462146179AB2
:101960000598ABE62D0000002B00000020000000D1
:101970002DE9F041044600251E461746880404D48C
:1019800005E039462020B0476D1C641EF9D5284675
:10199000BDE8F0812DE9F041044600251E46904641
:1019A000C80301D5302700E02027880404D505E0CE
:1019B00041463846B0476D1C641EF9D52846BDE83F
:1019C000F081FEE709490120096809B1002070474C
:1019D0000749CA69002AF9D1044A8968283212687D
:1019E000491E8A42F3D10220704700001C020020E9
:1019F0000C00002070B5074D0446C1B22846FFF721
:101A000061FB40212846FFF7C5FA0028F9D020469F
:101A100070BD0000003801401CB54FF4E134204691
:101A2000FFF70AF92046FFF789F906490220CDE9B8
:101A300000010023642204A1064801F053FD01F0D7
:101A40004BF9FEE70400002053544152545F5441C7
:101A5000534B0000DD2400082DE9F041184E0F46DD
:101A60000446F5683068001D00F07AFD38B930682A
:101A700090F82C1001208840316981433161601C4D
:101A800007D137B13168BDE8F0410E48091D00F0BB
:101A9000A7BD30682C44AC424460316805D2B06BBD
:101AA000BDE8F041091D00F083BD706B091D00F019
:101AB0007FFDB06A844200D2B462BDE8F0810000CC
:101AC0000C000020440200202DE9F041054600F002
:101AD00093FD2E4EB068401CB06030682C4F10B1A2
:101AE000706940B32DE03560B068012829D1002429
:101AF00004EB840007EB800000F04CFD641C082C14
:101B0000F6D32348A03000F045FD2148B43000F062
:101B100041FD1F48C83000F03DFD1D48DC3000F09D
:101B200039FD1B48F03000F035FD1948A0307063D6
:101B30001430B06305E03068E96AC06A884200D8B2
:101B40003560706A0121401C7062E86A3269814028
:101B50001143316100EB800007EB8000291D00F08C
:101B60003FFD00F099FD706900280CD03068E96AEB
:101B7000C06A884207D207494FF080500860BFF31F
:101B80004F8FBFF36F8FBDE8F08100000C00002085
:101B90005401002004ED00E010B500F02DFD0E4CC6
:101BA0002068A0B90D4800F0F5FC0C48143000F096
:101BB000F1FC0A48E0601430206100221021052069
:101BC00001F0BEF9206010B105A100F0EBFEBDE808
:101BD000104000F061BD00004800002058020020C5
:101BE000546D72510000000070B5124E124D1CE091
:101BF00001F008F9306820B1002401F0EDFDA4B92E
:101C000001E00124F9E700F0F7FCF068C468201D4A
:101C100000F0A6FCA868401EA8606868401E6860C6
:101C200000F03AFD204600F052F868680028DFD145
:101C300070BD0000300200200C00002030B4026CA7
:101C40000B46002A0BD0C1681144C1604468A14210
:101C500001D30168C16030BC1846FEF7D1BA30BC70
:101C600070472DE9F041856B174604460026026C4B
:101C700082B1C7B1E068FEF7C3FAE168206C091AC7
:101C8000E1602268914202D26168081AE060022F86
:101C900016D017E02068A8B9606801F0E5FC064698
:101CA000002060600EE0A068FEF7AAFA216CA06830
:101CB0000844A0606168884204D32068A06001E005
:101CC00005B16D1E6D1CA5633046BDE8F08110B5F1
:101CD0000446006B00F014FD2046BDE8104000F003
:101CE0000FBD00000A4900200A69012A00D901201D
:101CF0000A68D26A0AB100207047064A1268012AAF
:101D0000F9D80028F7D1886AC968401A70470000DE
:101D10000C0000205401002010484FF420514207CD
:101D200006D0C01D0D4920F00700411AC1F5205111
:101D30000B4A00230144C2E900030839103A21F09C
:101D4000070111604B600B600B1AC0E90013936030
:101D50004FF000405360D0607047000080020020C8
:101D6000840000200E4C40F68C45FFF73DFFFFF746
:101D7000B9FF0228F9D301F045F8A06AE16888426A
:101D800004D22A4607A10CA0FFF71BFEFFF7AAFF0B
:101D9000022801D300F046FD01F01EFDE5E700003A
:101DA0000C0000202E2E5C4672656552544F535C29
:101DB0007461736B732E6300784E6578745461732D
:101DC0006B556E626C6F636B54696D65203E3D2090
:101DD000785469636B436F756E7400002DE9F047AA
:101DE0000E46DDE9098482466FF00301206B01EBAA
:101DF00082010844089D20F007079946780705D01E
:101E000040F22B3219A11E48FFF7DBFD00202218FB
:101E1000315C82F83410315C11B1401C1028F6D3CB
:101E2000002684F84360082D00D30725E562C4E945
:101E30001156201D00F0B9FB04F1180000F0B5FBAD
:101E40002461C5F108006462A061E66484F8506012
:101E50004A465146384600F02FFB2060B8F1000F8B
:101E600001D0C8F80040BDE8F08700002E2E5C4687
:101E700072656552544F535C7461736B732E6300CB
:101E8000B83B000830B5114900E011460A688242AB
:101E9000FBD34B685C18844203D140681844486007
:101EA000084643681C18944209D1084C103C246829
:101EB000A24209D052681A4442600A68126802605D
:101EC000814200D0086030BD0460F9E78400002042
:101ED00070B5002441600B4D0061914206D8D11AC3
:101EE0008269914206D2011D286907E09A4203D215
:101EF000994201D3012403E0011DE86800F058FB7A
:101F0000204670BD4800002010B5044600F074FB68
:101F1000A06B20B1002400F0BFFB204610BD0124BF
:101F2000F9E700002DE9F3410F4600980026846C84
:101F30002CB940F6CE1216A11AA0FFF742FDA06BF5
:101F4000E16B884205D340F6CF1211A11A48FFF782
:101F500038FDA06BE16B88420CD294F945503A46AB
:101F600069462046FFF77DFE0646681C05D06D1CBD
:101F700084F845503046BDE8FC81606A0028F9D0FD
:101F800004F1240001F0DAFB0028F3D00126F1E788
:101F90002E2E5C4672656552544F535C71756575A3
:101FA000652E630070785175657565536574436F70
:101FB0006E7461696E657200703B0008F8B5054685
:101FC00013480E46C068C068C468201D00F0C8FAF7
:101FD000E069012816D1A0692B46411932462046F6
:101FE000FFF776FF70B100200346014600902A46B5
:101FF000204601F0DBFC28B94FF40272054906487F
:10200000FFF7DFFC616A01B02046BDE8F0400847F9
:1020100048000020103900085022000870B586B032
:10202000304E54E00198002806DADDE90301029AF7
:102030009047019800284ADB039C606910B1201D7D
:1020400000F08EFA05A800F0B9F8054601980A28B4
:102050003DD2DFE800F00505053C283905053C28A0
:102060000298A169034601442A462046FFF730FF43
:1020700000282CD0616A20468847E069012826D1D3
:10208000002000900298A1690023421819462046BA
:1020900001F08CFC00281AD140F2213212A118A0C4
:1020A000FFF78FFC13E00298A06128B94FF44E723D
:1020B0000DA115A0FFF785FCA0692B4641191A4612
:1020C0002046FFF705FF02E0204600F019FB002341
:1020D0001A4601A9306800F073FF0028A2D106B0AB
:1020E00070BD0000480000202E2E5C4672656552CF
:1020F000544F535C74696D6572732E630000000069
:1021000078526573756C74002820707854696D6519
:10211000722D3E7854696D6572506572696F6449BD
:102120006E5469636B73203E20302029000000004C
:10213000F8B50D46064600F065FE684600F03EF82C
:102140000446009810B101F047FBF8BD1148ADB14D
:1021500001690968D9B10025311B2A46006800F0E1
:1021600033FC01F039FB0028EFD10B494FF08050D0
:102170000860BFF34F8FBFF36F8FF8BDA642EBD857
:1021800001F02AFB21463046FFF718FFF8BD012574
:10219000E2E700004800002004ED00E00648416B43
:1021A000096829B1416BC968C9684968816270478B
:1021B0004FF0FF31FAE700000C00002070B5054633
:1021C00001F0CAF9064E0446B068844203D200F01A
:1021D00009F8012000E0002028602046B46070BDAE
:1021E00048000020F8B5184E25E0C068C4680568AE
:1021F000201D00F0B5F9616A20468847E069012892
:1022000019D1A0692844A84206D924616060211D23
:10221000F06800F0CDF90EE0002003460146009082
:102220002A46204601F0C2FB28B940F29232074903
:1022300007A0FFF7C6FBF06801680029D5D1316916
:10224000C6E90310F8BD000048000020103900085E
:1022500078526573756C740008484068401C04D05F
:10226000F42207A111A0FFF7ACFB502080F31188E6
:10227000BFF34F8FBFF36F8FFEE700005C000020BD
:102280002E2E5C4672656552544F535C706F7274AB
:1022900061626C655C525644535C41524D5F434DE4
:1022A000335C706F72742E630000000075784372A7
:1022B00069746963616C4E657374696E67203D3D36
:1022C000207E30554C000000084CE068016839B1B0
:1022D000002139B10020FFF72BFFFFF79FFEF4E745
:1022E0000121F6E7C0680068F5E70000480000201B
:1022F0002DE9F041044600F07FF994F9455004F1CE
:10230000240610E0A06C20B100212046FFF70AFE51
:1023100004E0606A48B1304601F010FA08B100F0FC
:102320001DFC6D1E6DB2002DECDC4FF0FF3684F805
:10233000456000F0B1F900F05FF994F9445004F100
:10234000100709E0206948B1384601F0F7F908B1F3
:1023500000F004FC6D1E6DB2002DF3DC84F84460C7
:10236000BDE8F04100F098B92DE9F041054600269E
:1023700000F048FD314F386808B9FFF7CDFCF86828
:1023800005424ED1002D4CD0083568070BD005F022
:102390000700C0F108000544680704D0BF2228A147
:1023A00031A0FFF70EFBE5B37868854239D82349A1
:1023B00010310846046801E0214604466068A842DE
:1023C00002D220680028F7D13868B846844228D065
:1023D0000E682068086060680836401B10280ED917
:1023E0006719780704D0EC2215A12B48FFF7E9FA0A
:1023F0006068401B786038466560FFF743FD6168A0
:10240000D8F804004246401AC8F80400D8F808304A
:10241000984200D29060D8F80C0001430020C4E933
:10242000000101F0D9F9700705D04FF4967204A1AC
:102430001A48FFF7C6FA3046BDE8F0817400002064
:102440002E2E5C4672656552544F535C706F7274E9
:1024500061626C655C4D656D4D616E675C68656160
:10246000705F342E6300000028207857616E746519
:102470006453697A65202620706F727442595445FE
:102480005F414C49474E4D454E545F4D41534B20A3
:1024900029203D3D20300000B03C0008F43C0008FD
:1024A0000449086818B10868826C521C8264086884
:1024B000704700000C00002010B5031F4FF080741F
:1024C0001C601B1F21F001011960191F024B0B60DA
:1024D000143940380A6010BD592200081CB500F0BC
:1024E0008BF800210620CDE900010B46642206A1ED
:1024F000084800F0F7FF0848406800F0C3FABDE85C
:102500001C4000F0C9B80000746573745F74617397
:102510006B0000001D250008000000200B4C4FF44C
:102520007A75284600F072FA09A0FEF7D1FDE1782D
:102530000648891C2170891C6170891CA170891C46
:10254000E1700421FEF754FCEBE7000000000020DE
:102550007461736B2072756E6E696E67200D0A0070
:10256000D0E9013201699A60D0E901235A604A68D2
:10257000824201D182684A60002202610868401EDE
:1025800008607047502080F31188BFF34F8FBFF36E
:102590006F8FFEE700F108014FF0FF32C0E9011232
:1025A000C160016100210160704700210161704735
:1025B00030B50C68621C02D000F1080202E002692A
:1025C00004E01A4653681D68A542FAD953684B6067
:1025D00099608A60516008610168491C016030BDE2
:1025E00042684A6093688B609368596091600861A3
:1025F0000168491C01607047502080F31188BFF3C7
:102600004F8FBFF36F8F09494868401C486001280D
:102610000AD10748006810F0FF0F05D04FF4BD72D3
:1026200004A10FA0FFF7CDB9704700005C000020A7
:1026300004ED00E02E2E5C4672656552544F535CEB
:10264000706F727461626C655C525644535C4152A7
:102650004D5F434D335C706F72742E630000000059
:102660002820706F72744E5649435F494E545F4341
:1026700054524C5F524547202620706F7274564565
:1026800043544143544956455F4D41534B20292003
:102690003D3D20300000000010B5084C606828B9AE
:1026A00040F2811206A111A0FFF78BF96068401E6D
:1026B000606001D180F3118810BD00005C00002033
:1026C0002E2E5C4672656552544F535C706F727467
:1026D00061626C655C525644535C41524D5F434DA0
:1026E000335C706F72742E63000000007578437263
:1026F00069746963616C4E657374696E670000008C
:1027000070B500282AD0164DA0F108046068E96869
:10271000084205D14FF4A07212A11CA0FFF751F995
:10272000206828B140F241120EA125A0FFF749F917
:102730006068E968084211D02268002A0ED18843F7
:10274000606000F05FFB606869680844686020466C
:10275000FFF798FBBDE8704001F03EB870BD000087
:10276000740000202E2E5C4672656552544F535CF7
:10277000706F727461626C655C4D656D4D616E6702
:102780005C686561705F342E6300000028207078FB
:102790004C696E6B2D3E78426C6F636B53697A6542
:1027A00020262078426C6F636B416C6C6F636174A0
:1027B0006564426974202920213D2030000000001A
:1027C00070784C696E6B2D3E70784E6578744672E9
:1027D0006565426C6F636B203D3D204E554C4C004F
:1027E00010B50E484FF47A730D4A00686FF07F44BD
:1027F000B0FBF3F19160B4FBF1F1D160B0FBF0F10B
:102800002D24B4FBF1F11161B0FBF3F14FF0E020A6
:10281000491E41610721016110BD0000A000002098
:102820005C0000202DE9F041324E0446F0688442FD
:1028300000D904464FF0E027386920F001003861E4
:10284000B969B268601E02FB00153069854200D983
:102850002D1A72B6BFF34F8FBFF36F8FFFF7B2F829
:1028600008B37D610022BA61386940F00100386127
:1028700024B1BFF34F8F30BFBFF36F8F386920F0A3
:102880000101396162B6C00319D5B869B168281A67
:10289000081A3369401E984201D3884200D9481E65
:1028A0007861641E15E0B8697861386940F001000C
:1028B0003861B068401E786162B6BDE8F081B068EA
:1028C000B9694443611AB1FBF0F4631C4343581ADD
:1028D0007861BA61FFF790FE386940F00100386115
:1028E000204600F055FAB068401E7861BDE8F0411E
:1028F000FFF7D2BE5C00002010B5FDF76BFC104C5A
:1029000010280CD300F1E02090F8F00321788842E1
:1029100005D24FF42A720BA115A0FFF752F81F48F9
:102920000068616900F4E060884207D9BDE81040A2
:102930004FF42E7203A11A48FFF743B810BD0000F0
:102940005C0000202E2E5C4672656552544F535C2D
:10295000706F727461626C655C525644535C415294
:102960004D5F434D335C706F72742E630000000046
:10297000756343757272656E745072696F726974B3
:1029800079203E3D2075634D617853797343616CC6
:102990006C5072696F726974790000000CED00E090
:1029A0006C3C000810B5074B002253F832401CB1B4
:1029B000521C082AF9D310BD43F8321003EBC201B0
:1029C000486010BD1401002070B515460E4604463F
:1029D000FFF712FE94F944100020491C01D184F83D
:1029E000440094F94510491C01D184F84500FFF7D3
:1029F00053FEA06B28B92A46314604F1240000F0AA
:102A0000DBF82046BDE87040FFF772BC10B504004B
:102A100012D00E49096B29B140F2CF420CA111A08E
:102A2000FEF7CFFF00F0EEF900212046FFF714F883
:102A300000F0D2FE002807D111494FF08050086005
:102A4000BFF34F8FBFF36F8F10BD00000C0000204D
:102A50002E2E5C4672656552544F535C7461736BE5
:102A6000732E630075785363686564756C65725383
:102A7000757370656E646564203D3D203000000014
:102A800004ED00E070B50446FFF7B6FD244D04B92F
:102A90002C68201DFFF764FD58B9E06A214A00EB5D
:102AA000800152F8211021B9012181402869884311
:102AB0002861A06A18B104F11800FFF751FD686A97
:102AC000401C68622868844208D11648211DDC3009
:102AD000FFF786FD6868401C686007E0A868401E34
:102AE000A8602046FFF7F3F8FFF758FBFFF7D4FD87
:102AF0006869002812D0286884420FD1286B28B159
:102B000040F2654208A10DA0FEF75BFF12494FF0AD
:102B100080500860BFF34F8FBFF36F8F70BD000010
:102B20000C000020540100202E2E5C467265655278
:102B3000544F535C7461736B732E630075785363E9
:102B4000686564756C657253757370656E646564F1
:102B5000203D3D203000000004ED00E0014901204F
:102B6000C86170470C00002070B50D46040005D107
:102B700040F6063207A10CA0FEF723FF0D480168BE
:102B800020461831FFF714FD2846BDE870400121AA
:102B9000FEF762BF2E2E5C4672656552544F535C41
:102BA0007461736B732E630070784576656E744C38
:102BB000697374000C00002070B514460E460500C1
:102BC00005D140F6313209A10DA0FEF7FAFE0F48FB
:102BD000016828461831FFF703FD0CB14FF0FF36AE
:102BE00021463046BDE87040FEF736BF2E2E5C46CB
:102BF00072656552544F535C7461736B732E63003E
:102C000070784576656E744C697374000C00002012
:102C100070B5040039D01D4DE06A2968C96A884240
:102C200033D2A069002804DB2868C06AC0F108001C
:102C3000A061E06A164E00EB8000616906EB80003F
:102C400081421FD1201DFFF78BFC012150B9E06AA2
:102C500000EB800256F8222022B92A6901FA00F01E
:102C600082432A612868C06AE0622A698140114370
:102C7000296100EB800006EB8000211DBDE870405B
:102C8000FFF7AEBC2868C06AE06270BD0C0000208F
:102C90005401002010B5040005D140F6C13205A151
:102CA00009A0FEF78EFE0B48016A2160C0686060D3
:102CB00010BD00002E2E5C4672656552544F535C69
:102CC0007461736B732E6300707854696D654F7512
:102CD000740000000C0000201CB517480024CDE94A
:102CE00000402346642215A1164800F0FBFB012892
:102CF00003D100F027FE01280AD0401C1BD102B0EE
:102D000040F28472BDE810400FA114A0FEF759BE36
:102D1000502080F31188BFF34F8FBFF36F8F0648A9
:102D20004FF0FF312C38816201214161C460BDE860
:102D30001C4000F0B3B81CBD3800002049444C458D
:102D400000000000651D00082E2E5C46726565526D
:102D5000544F535C7461736B732E630078526574C7
:102D600075726E20213D20657272434F554C445F51
:102D70004E4F545F414C4C4F434154455F52455177
:102D800055495245445F4D454D4F52590000000092
:102D900070B5084D0446E868A96A2044884205D900
:102DA00040F6711204A109A0FEF70BFEE86820446A
:102DB000E86070BD0C0000202E2E5C4672656552E6
:102DC000544F535C7461736B732E630028207854E6
:102DD00069636B436F756E74202B20785469636B45
:102DE00073546F4A756D702029203C3D20784E65E4
:102DF00078745461736B556E626C6F636B54696D5C
:102E0000650000000248016B491C01637047000027
:102E10000C00002070B5194D286B10B10120E8613D
:102E200070BD0020E861286829680068096B884245
:102E300004D8296828683431FFF7A4FB2869104EAC
:102E4000B0FA80F0C0F11F0000EB800456F82400B7
:102E500028B940F6F6220BA10F48FEF7B2FD06EBAB
:102E6000840000F10802416849684160914201D143
:102E700049684160C868286070BD00000C000020EF
:102E8000540100202E2E5C4672656552544F535CEF
:102E90007461736B732E6300243C00081CB51A49DF
:102EA00008780190FF20087008788DF800009DF8E0
:102EB0000000164C00F0500020700720606107E011
:102EC0006069401E60619DF8000040008DF80000C0
:102ED0009DF800000006F3D4207D000200F4E060BD
:102EE0006061019808700A48016841F4700101604E
:102EF000016841F070410160FFF772FC00206060E2
:102F0000FDF732F900201CBD00E400E05C00002069
:102F100020ED00E010B5502080F31188BFF34F8FF3
:102F2000BFF36F8F00F01EFB18B104494FF08050C3
:102F30000860002080F3118810BD000004ED00E05F
:102F400070B50E46050005D14FF4C4720EA113A052
:102F5000FEF737FDA6B105FB06F04C30FFF704FA8B
:102F600004000CD004F14C0066B12060C4E90F5697
:102F70002046012100F0E6F800212046A16470BD42
:102F80000020EAE72460F1E72E2E5C467265655268
:102F9000544F535C71756575652E63007578517576
:102FA0006575654C656E677468203E202820554223
:102FB000617365547970655F7420292030000000CA
:102FC0002DE9FF4F83B09B468A4604004FF0000670
:102FD00005D140F2DC4251A155A0FEF7F2FCBAF156
:102FE000000F07D1206C28B140F2DD424BA15248BE
:102FF000FEF7E7FC00F0A2FA38B9059828B14FF4C3
:103000009C6246A14D48FEF7DCFC4FF000094FF0F2
:103010008057DFF82C81FFF7EFFAA56B45B35146D7
:103020002046E668FEF70AFEBBF1000F13D0E6600B
:10303000606A50B104F1240000F080FB28B1C8F8A8
:103040000070BFF34F8FBFF36F8FFFF725FB012099
:1030500007B0BDE8F08F6D1EA563206810B9FFF7BB
:103060001FFA606020690028EFD004F11000E3E748
:10307000059808B11EB106E0FFF70EFB27E0684691
:10308000FFF708FE0126FFF707FBFFF7BBFEFFF780
:10309000B3FA94F94400401C01D184F8449094F9A7
:1030A0004500401C01D184F84590FFF7F5FA05A9C9
:1030B000684600F0CDF9002820460AD0FFF718F93D
:1030C00000F08AFB2046FEF71FFF0028A3D0002057
:1030D000BEE7FEF719FFD8B1206830B9FFF78CFAC8
:1030E0006068FFF795FDFFF7D7FA04F12400059912
:1030F000FFF73AFD2046FFF7FBF800F06DFB0028D4
:1031000089D1C8F80070BFF34F8FBFF36F8F82E78C
:103110002046FFF7EDF800F05FFB7CE72E2E5C46C3
:1031200072656552544F535C71756575652E630009
:103130007078517565756500243B0008343A0008C5
:1031400004ED00E070B50D46040005D140F21B12FD
:103150001CA121A0FEF735FCFFF74EFAD4E90F20A1
:10316000216802FB001161600021A1632168A16058
:103170000A46D4E90F01401E00FB0121E16021460F
:103180004FF0FF3001F8440F487004F110004DB1CA
:10319000FFF700FA04F12400FFF7FCF9FFF77CFACF
:1031A000012070BD21690029F8D000F0C7FA00287D
:1031B000F4D00B494FF080500860BFF34F8FBFF33E
:1031C0006F8FEBE72E2E5C4672656552544F535C51
:1031D00071756575652E630070785175657565004C
:1031E00004ED00E02DE9FF4F83B099468B460400C3
:1031F0004FF0000605D140F2D92252A156A0FEF7A9
:10320000E0FBBBF1000F07D1206C28B140F2DA22BD
:103210004CA15348FEF7D5FBB9F1020F08D1E06B82
:10322000012805D040F2DB2246A14E48FEF7C9FB3B
:1032300000F084F938B9059828B140F2DE2241A1A6
:103240004948FEF7BEFB4FF0000A4FF08057DFF809
:103250001C81FFF7D1F9A06BE16B884206D3B9F16D
:10326000020F03D0059800B316B325E04A4659462D
:103270002046FEF7F6FCA16C21B149462046FEF738
:1032800051FE05E0616A19B104F1240000F056FA1C
:1032900028B1C8F80070BFF34F8FBFF36F8FFFF7EF
:1032A000FBF9012007B0BDE8F08FFFF7F5F921E049
:1032B0006846FFF7EFFC0126FFF7EEF9FFF7A2FDE6
:1032C000FFF79AF994F94400401C01D184F844A016
:1032D00094F94500401C01D184F845A0FFF7DCF9C2
:1032E00005A9684600F0B4F830B12046FFF700F8B1
:1032F00000F072FA0020D5E7FFF77EF9A06BE16BD2
:10330000884201D1012500E00025FFF7C5F995B1FC
:1033100004F110000599FFF727FC2046FEF7E8FFAF
:1033200000F05AFA002894D1C8F80070BFF34F8F0C
:10333000BFF36F8F8DE72046FEF7DAFF00F04CFAFF
:1033400087E700002E2E5C4672656552544F535C31
:1033500071756575652E63007078517565756500CA
:10336000D43A00088C3A0008343A000804ED00E032
:103370002DE9F047984615468946040005D140F2EC
:103380009F322AA12EA0FEF71CFBB9F1000F07D136
:10339000206C28B14FF4687224A12B48FEF711FB72
:1033A000B8F1020F08D1E06B012805D040F2A1323C
:1033B0001EA12648FEF705FBFFF79EFA5020EFF30B
:1033C000118780F31188BFF34F8FBFF36F8FA06B0E
:1033D000E16B884207D3B8F1020F04D0002087F3D5
:1033E0001188BDE8F08794F9456042464946204679
:1033F000FEF737FC701C04D0761C84F84560012071
:10340000EDE7A06C012620B141462046FEF78AFD7B
:1034100006E0606A0028F2D004F1240000F08EF982
:103420000028ECD0002DEAD02E60E8E72E2E5C4676
:1034300072656552544F535C71756575652E6300F6
:103440007078517565756500D43A00088C3A0008AB
:1034500070B50D46040005D140F6CB3214A119A079
:10346000FEF7AFFA2DB940F6CC3211A118A0FEF745
:10347000A8FAFFF7C1F81A4AD06829684B1C0FD088
:103480002368126A934202D0626882420AD9626853
:10349000801A884206D2081A28602046FFF7FAFBF5
:1034A000002400E00124FFF7F7F8204670BD00007B
:1034B0002E2E5C4672656552544F535C7461736B7B
:1034C000732E6300707854696D654F757400000049
:1034D00070785469636B73546F57616974000000AE
:1034E0000C0000202DE9FF5F8346DDE90E87994639
:1034F00016468A469000FEF737FF05001AD0542082
:10350000FEF732FF040012D025630021CDE902410D
:10351000CDE900874B46324651465846FEF75EFCE1
:103520002046FEF7D1FA012004B0BDE8F09F2846FE
:10353000FFF7E6F84FF0FF30F6E700000548416975
:1035400019B1006B18B100207047012070470220AC
:10355000704700000C0000200148C0687047000060
:103560000C0000202DE9F0412D4F0026386B40B1B2
:10357000B869401CB861F86900B101263046BDE861
:10358000F081FD686D1CFD6011D1786B006828B179
:1035900040F6D91223A128A0FEF713FA786BB96B75
:1035A0007963B863386A401C3862FEF7F7FDB86A81
:1035B000DFF8B080854209D3786B006880B1786B02
:1035C000C068C468606885420DD2B8623868C06A55
:1035D00000EB800158F821000128CCD90126CAE768
:1035E0004FF0FF30F1E7201DFEF7BAFFA06A18B1D7
:1035F00004F11800FEF7B4FFE06A01213A69814046
:103600001143396100EB800108EB8100211DFEF7B9
:10361000E7FFE06A3968C96A8842CDD30126CBE763
:103620000C0000202E2E5C4672656552544F535C90
:103630007461736B732E630028206C6973744C493A
:1036400053545F49535F454D505459282070784476
:10365000656C617965645461736B4C69737420297E
:10366000202900005401002070B504004FF000062E
:103670003CD01F4D2868844205D040F6C7621DA18A
:1036800021A0FEF79EF9A06C28B940F6C96219A1E5
:1036900023A0FEF796F9A06C401EA064626CE16A5C
:1036A000914223D010BB201DFEF75AFF2249012270
:1036B00050B9E06A00EB800351F8233023B92B693D
:1036C00002FA00F083432B61606CE062C0F10800F5
:1036D000A061E06A2B6982401A432A6100EB8000F6
:1036E00001EB8000211DFEF77BFF0126304670BDF7
:1036F0000C0000202E2E5C4672656552544F535CC0
:103700007461736B732E63007078544342203D3DA7
:1037100020707843757272656E74544342000000E5
:1037200070785443422D3E75784D75746578657395
:1037300048656C6400000000540100202DE9F04150
:10374000C068C4682CB940F6613218A11CA0FEF70D
:1037500038F904F118000746FEF702FF1C4D286BEC
:10376000012658B139461B48FEF73AFFE06A29683E
:10377000C96A884213D90124EE6111E0201DFEF7C9
:10378000EFFEE06A2A6906FA00F111432961114946
:1037900000EB8000C83901EB8000211DE4E7002424
:1037A000FEF7FCFC2046BDE8F08100002E2E5C46B2
:1037B00072656552544F535C7461736B732E630072
:1037C0007078556E626C6F636B65645443420000A1
:1037D0000C0000201C0200202DE9F0472B4D002496
:1037E0002746286B28B94FF4FD6229A12DA0FEF7CA
:1037F000E8F8FEF701FF286B401E2863286BE8BB42
:10380000A8682E490126C8B3A1F1C8098846D8F88E
:103810000010E9B1D8F80C00C46804F11800FEF7F4
:103820009FFE201DFEF79CFEE06A2A6906FA00F161
:103830001143296100EB800109EB8100211DFEF796
:10384000CFFEE06A2968C96A8842E0D3EE61DEE70C
:103850000CB1FEF7A3FCAC693CB1FFF783FE00B1ED
:10386000EE61641EF9D10020A861E86930B1144905
:10387000012738070860BFF34F8F00E001E0BFF376
:103880006F8FFEF709FF3846BDE8F0870C00002077
:103890002E2E5C4672656552544F535C7461736B97
:1038A000732E630075785363686564756C65725335
:1038B000757370656E646564000000001C02002072
:1038C00004ED00E02DE9F0470746994616460D46FF
:1038D0002820DDF820A0FEF747FD040014D0B846EC
:1038E0004F46D1462DB94FF4C67209A10EA0FEF77E
:1038F00068F8FEF751F904F11801C4F8008081E876
:10390000E002201DFEF751FE2046BDE8F0870000D2
:103910002E2E5C4672656552544F535C74696D651A
:1039200072732E630000000028207854696D657260
:10393000506572696F64496E5469636B73203E20F1
:10394000302029001CB50024FEF726F90B4800683A
:1039500060B10A490720091DCDE900010023642256
:1039600007A10948FFF7BEFD040005D140F233125C
:1039700006A10CA0FEF725F820461CBD480000203B
:10398000546D722053766300C92200082E2E5C46C7
:1039900072656552544F535C74696D6572732E6322
:1039A000000000007852657475726E002DE9FF47C3
:1039B0009946DDF830A090460D4606004FF000070E
:1039C00005D14FF4D37212A117A0FDF7FAFF184CDE
:1039D000206880B1CDE900580296062D11DAFFF774
:1039E000ADFD02284FF0000309D00022694620688F
:1039F000FFF7F8FB074604B03846BDE8F0875246AB
:103A0000F4E700234A466946FFF7B2FCF2E70000FC
:103A10002E2E5C4672656552544F535C74696D6519
:103A200072732E63000000007854696D65720000A7
:103A3000480000202128202820785461736B4765B6
:103A4000745363686564756C65725374617465283A
:103A500029203D3D207461736B5343484544554CC8
:103A600045525F53555350454E4445442029202626
:103A700026202820785469636B73546F57616974EA
:103A800020213D2030202920290000002128202845
:103A90002078436F7079506F736974696F6E203D41
:103AA0003D2071756575654F5645525752495445CD
:103AB0002029202626202820707851756575652DCF
:103AC0003E75784C656E67746820213D2031202951
:103AD00020290000212820282070764974656D5423
:103AE0006F5175657565203D3D204E554C4C202924
:103AF000202626202820707851756575652D3E7525
:103B0000784974656D53697A6520213D20282055D8
:103B100042617365547970655F74202920305520A7
:103B200029202900212820282070764275666665A4
:103B300072203D3D204E554C4C2029202626202821
:103B400020707851756575652D3E75784974656D81
:103B500053697A6520213D202820554261736554C0
:103B60007970655F742029203055202920290000B4
:103B700070785175657565536574436F6E746169CE
:103B80006E65722D3E75784D657373616765735709
:103B9000616974696E67203C207078517565756540
:103BA000536574436F6E7461696E65722D3E7578EE
:103BB0004C656E6774680000282028202820706FEC
:103BC0007274504F494E5445525F53495A455F54A1
:103BD0005950452029207078546F704F6653746196
:103BE000636B2026202820706F7274504F494E540A
:103BF00045525F53495A455F54595045202920701A
:103C00006F7274425954455F414C49474E4D454E81
:103C1000545F4D41534B2029203D3D2030554C20D1
:103C2000290000006C69737443555252454E545F2D
:103C30004C4953545F4C454E475448282026282071
:103C4000707852656164795461736B734C697374F5
:103C5000735B207578546F705072696F72697479F4
:103C6000205D20292029203E203000002820706F70
:103C7000727441495243525F524547202620706F6B
:103C800072745052494F524954595F47524F5550E0
:103C90005F4D41534B2029203C3D20756C4D617890
:103CA00050524947524F555056616C75650000009F
:103CB00028202820282073697A655F7420292070C5
:103CC000784E6577426C6F636B4C696E6B20292070
:103CD0002620706F7274425954455F414C49474EDB
:103CE0004D454E545F4D41534B2029203D3D2030E2
:103CF0000000000028202820282073697A655F745E
:103D0000202920707652657475726E202920262035
:103D1000282073697A655F74202920706F7274425D
:103D20005954455F414C49474E4D454E545F4D41B6
:103D3000534B2029203D3D20300000005C3D000811
:103D400000000020B8000000F0100008143E000839
:103D5000B8000020C82D000000110008000000007D
:103D60000000000000000000000000000000000053
:103D70000000000000000000000000000000000043
:103D80000000000000000000000000000000000033
:103D90000000000000000000000000000000000023
:103DA0000000000000000000000000000000000013
:103DB000000000000000000000000000AAAAAAAA5B
:103DC00000000000000000000000000000000000F3
:103DD00000000000000000000000000000000000E3
:103DE00000000000000000000204060800000000BF
:103DF00001020304010203040607080900A24A04A1
:103E0000000000000000000001020304060708098A
:043E100000000000AE
:0400000508000131BD
:00000001FF
