:020000040800F2
:10000000A02E0020DD010008090B0008E30700080E
:100010003D080008E5050008E5160008000000009E
:100020000000000000000000000000004501000882
:10003000250700080000000089010008B10D000834
:10004000F7010008F7010008F7010008F7010008B0
:10005000F7010008F7010008F7010008F7010008A0
:10006000F7010008F7010008F7010008F701000890
:10007000F7010008F7010008F7010008F701000880
:10008000F7010008F7010008F7010008F701000870
:10009000F7010008F7010008F7010008F701000860
:1000A000F7010008F7010008F7010008F701000850
:1000B000F7010008F7010008F7010008F701000840
:1000C000F7010008F7010008F7010008F701000830
:1000D000F7010008C1140008E9140008F70100083E
:1000E000F7010008F7010008F7010008F701000810
:1000F000F7010008F7010008F7010008F701000800
:10010000F7010008F7010008F7010008F7010008EF
:10011000F7010008F7010008F7010008F7010008DF
:10012000F7010008F7010008F7010008F7010008CF
:10013000DFF80CD000F052F900480047BD19000864
:10014000A02E0020224B19680868B0E8F00F80F359
:100150000988BFF36F8F4FF0000080F311884EF0D5
:100160000D0E70470000000006480068006880F32C
:10017000088862B661B6BFF34F8FBFF36F8F00DFA1
:1001800000BF00BF08ED00E0EFF30980BFF36F8F01
:100190000F4B1A6820E9F00F106008B54FF05000BF
:1001A00080F31188BFF34F8FBFF36F8F02F03EFED5
:1001B0004FF0000080F31188BDE808401968086816
:1001C000B0E8F00F80F30988BFF36F8F704700BF6E
:1001D00004000020EFF305807047000006488047C8
:1001E00006480047FEE7FEE7FEE7FEE7FEE7FEE71C
:1001F000FEE7FEE7FEE7FEE7C50D00083101000857
:1002000040EA01039B0703D009E008C9121F08C098
:10021000042AFAD203E011F8013B00F8013B521E18
:10022000F9D27047F0B480EA0102D40F4200B2EB79
:10023000410F02D20246084611464A0042D0C30D81
:10024000DDB2C1F3C752AD1A202D35DAC1F3160164
:1002500041F4000204B15242C5F1200602FA06F14F
:100260002A411044B3EBD05F23D0C4B1012DA0EBE1
:10027000C35009DCF0BC4FF0004202EAC352DBB2CB
:1002800000F5000000F07BB8400000F1807000EB4A
:10029000C350A0F1807040EAD170490009E04908DC
:1002A00041EAC071A0EBC35000F50000400800EB2C
:1002B000C350F0BC00F05AB86142012202EB410188
:1002C000001BF6E7F0BC704781F00041AAE780F020
:1002D0000040A7E7C10F80EAE0700844CA079623F0
:1002E000002100F04CB800F0004220F00040C10DA9
:1002F000C0F3160040F400007F2901DA00207047A7
:10030000962903DCC1F19601C84001E09639884086
:10031000002AF4D040427047002801DBC0F10040C1
:10032000002901DBC1F1004181427047002801DB57
:10033000C0F10040002901DBC1F100418842704753
:1003400030B50B46014600202022012409E021FAA5
:1003500002F59D4205D303FA02F5491B04FA02F5A2
:100360002844151EA2F10102F1DC30BD0029A8BF0E
:100370007047401C490008BF20F00100704710B4CE
:10038000B0FA80FC00FA0CF050EA010404BF10BC83
:10039000704749B1CCF1200421FA04F411FA0CF1B0
:1003A00018BF012121430843A3EB0C01CB1D4FEAE9
:1003B00000614FEA102042BF002010BC704700EBE4
:1003C000C35010440029A4BF10BC7047401C490012
:1003D00008BF20F0010010BC70470000064C074D1C
:1003E00006E0E06840F0010394E807009847103405
:1003F000AC42F6D3FFF7A0FE543D0008743D000860
:100400000029816802D041F0010101E021F00101E1
:1004100081607047014600208968490700D50120A6
:100420007047C06C80B270470246002012680A42D2
:1004300000D001207047014600208968090700D5D7
:100440000120704710B542680E4B0C791A400B68BA
:1004500042EA04221343436082680B4B1A40D1E9FD
:10046000024323434C7942EA440213438360C26A45
:10047000097C22F47002491EC9B242EA0151C162EC
:1004800010BD0000FFFEF0FFFDF7F1FF70B507267D
:1004900009290AD9C568A1F10A0404EB4404A6405D
:1004A000B543A3401D43C56007E0056901EB410466
:1004B000A640B543A3401D4305611F23072A09D267
:1004C000446B521E02EB820293409C4391400C43CA
:1004D000446370BD0D2A09D2046BD21F02EB820265
:1004E00093409C4391400C43046370BDC46A0D3A31
:1004F00002EB820293409C4391400C43C46270BD66
:10050000816841F00801816070470029816802D04C
:1005100041F4A00101E021F4A001816070478168ED
:1005200041F00401816070471CB505490620CDE902
:1005300000010023802203A1054802F0DFFF1CBD5B
:10054000B400002053746172745F5461736B0000D7
:10055000090D00082DE9F04101F0C6F8194C0146DB
:10056000208019A001F022F9208840F21A411C4D88
:1005700088421A4F4FF480764FF00401284617D274
:1005800000F01FF9C0F10100C2B20421284600F0BA
:1005900023F9208840F2DE31884211D20421284616
:1005A00000F016F931463846BDE8F04100F012B9C6
:1005B00000F010F931463846BDE8F04100F008B9C6
:1005C000BDE8F081AC00002062617474657279202E
:1005D000766F6C3A202564200D0A00000008014067
:1005E00000140140FEE70029016802D041F001013A
:1005F00002E04FF6FE7211400160704701684FF64D
:10060000FE72114001600021016041608160C160A3
:100610003149314A0839904203D1486840F00F000F
:1006200006E02D4A1432904204D1486840F0F000B0
:1006300048607047284A2832904203D1486840F405
:100640007060F5E7244A3C32904203D1486840F498
:100650007040EDE7204A5032904203D1486840F4A0
:100660007020E5E71C4A6432904203D1486840F4A8
:100670007000DDE7184A7832904203D1486840F0B4
:100680007060D5E7154A111F904203D1086840F009
:100690000F0006E0114A1432904204D1086840F07D
:1006A000F000086070470D4A2832904203D1086874
:1006B00040F47060F5E7094A3C32904203D1086883
:1006C00040F47040EDE7054A50329042EAD10868A4
:1006D00040F47020E5E700000800024008040240F2
:1006E000406880B2704730B5026847F6F0739A43AD
:1006F0000C6A8B682343D1E904452C4323438C695E
:100700002343CC6923434C6A23438C6A234313431A
:100710000360CA6842600A6882604968C16030BD8F
:10072000416070477047F0B5CC78002204F00F03A9
:10073000E40601D58C7823430C784FF00F0C14F0AD
:10074000FF0F4FF0010E1BD005680E880EFA02F461
:100750002640A64210D196000CFA06F725EA0707B4
:1007600003FA06F5CE783D43282E02D0482E02D05B
:1007700002E0446100E00461521C082AE5D30560F0
:100780000A88FF2A1CD94468002202F108060EFAE2
:1007900006F50E882E40AE420ED196000CFA06F7F2
:1007A000BC4303FA06F7CE783C43282E00D14561BE
:1007B000CE78482E00D10561521C082AE5D344604A
:1007C000F0BD0246002092680A4200D00120704726
:1007D00041617047016170470AB101617047416131
:1007E0007047FEE7F8B50121242000F0E3F904206A
:1007F000ADF8000010208DF8030003200D4D8DF89A
:10080000020069462846FFF78EFF0B4EAC15ADF887
:10081000004069463046FFF786FF04212846FFF76F
:10082000D9FF21463046FFF7D5FF21463046FFF776
:10083000CFFFF8BD0014014000080140FEE70000B2
:1008400070B5164D041E09DD10212846FFF7C0FFC4
:1008500020212846FFF7BEFFA1B20AE013DA2021CB
:100860002846FFF7B5FF10212846FFF7B3FF604287
:1008700081B24FF4FA60814200D90146BDE8704070
:10088000074800F017BC10212846FFF7A1FF2021E0
:100890002846FFF79DFF0021F0E70000001001400F
:1008A0000034014070B5164D041E09DD04212846B0
:1008B000FFF78EFF08212846FFF78CFFA1B20AE060
:1008C00013DA08212846FFF783FF04212846FFF7A3
:1008D00081FF604281B24FF4FA60814200D9014643
:1008E000BDE87040074800F0E7BB04212846FFF749
:1008F0006FFF08212846FFF76BFF0021F0E700009B
:10090000001001400034014070B5164D041E09DD91
:1009100002212846FFF75CFF01212846FFF75AFF16
:10092000A1B20AE013DA01212846FFF751FF0221A4
:100930002846FFF74FFF604281B24FF4FA608142D0
:1009400000D90146BDE87040074800F0B7BB02215E
:100950002846FFF73DFF01212846FFF739FF002118
:10096000F0E7000000100140003401402DE9F041A3
:10097000174D041E4FF400664FF4805709DD3146D1
:100980002846FFF725FF39462846FFF723FFA1B287
:100990000AE013DA39462846FFF71AFF314628469F
:1009A000FFF718FF604281B24FF4FA60814200D92C
:1009B0000146BDE8F041074800F082BB31462846B9
:1009C000FFF706FF39462846FFF702FF0021F0E750
:1009D000000801400034014070B5044688B0012190
:1009E000112000F0E7F84FF47070ADF80000182007
:1009F0008DF80300414E03258DF8025069463046BC
:100A0000FFF791FE0121142000F0D4F83020ADF85A
:100A1000000010208DF803008DF802506946304622
:100A2000FFF781FE0C20ADF8000069463046FFF765
:100A30007AFEADF8005069463046FFF774FEE802D2
:100A4000ADF8000069462E48FFF76DFE002C52D02D
:100A5000142C00D914240121480300F0ABF840F213
:100A6000CF70ADF818002420B0FBF4F0401EADF8B4
:100A700014000024234DADF81A40ADF8164005A926
:100A8000284600F021FB6020ADF804000120ADF8FD
:100A90000600ADF80A40ADF80C4001A9284600F068
:100AA000F9F90821284600F035FA01A9284600F096
:100AB00037FA0821284600F073FA01A9284600F009
:100AC00079FA0821284600F0B3FA01A9284600F077
:100AD000B5FA0821284600F0E3FA0121284600F083
:100AE000B9F90121284600F0BFF90121284600F09C
:100AF000C5F908B070BD0124ADE700000010014049
:100B000000080140003401407047000030B50F2359
:100B1000C27801780125F2B1144A126801F1E0218E
:100B200002F4E062C2F5E062120AC2F10404D340AA
:100B30004278A24084781C401443220181F80024AA
:100B4000007800F01F018D404009800000F1E02096
:100B5000C0F8005130BD01F01F00854048098000F9
:100B600000F1E020C0F8805130BD00000CED00E045
:100B7000034A516821F4404101435160704700002D
:100B800000100240044A0029516901D0014300E0ED
:100B9000814351617047000000100240044A00295F
:100BA000D16901D0014300E08143D1617047000069
:100BB00000100240044A0029916901D0014300E07D
:100BC00081439161704700000010024030B5204A17
:100BD0005168204B11F00C0103D0042901D00829E1
:100BE00001D0036012E05168536801F470114FF0B6
:100BF000020413F4803F04EB914102D053689B033D
:100C000001D5154B00E0134B5943016051680F2388
:100C100003EA1111114B5C5C0168E14041605468CA
:100C2000072505EA14241C5D21FA04F48460546845
:100C300005EAD4241B5DD940C1605268032303EA4E
:100C40009232064B1B1F9A5CB1FBF2F1016130BD81
:100C50000010024000127A0000093D0088000020C8
:100C60000CB50022264800920192016841F48031BF
:100C700001604FF4A063016801F400310191009913
:100C8000491C0091019911B900999942F3D1016869
:100C9000890333D5012101911A490A6842F01002F3
:100CA0000A600A6822F003020A600A6842F002023F
:100CB0000A604168416041684160416841F4806177
:100CC0004160416821F47C114160416841F4E811C0
:100CD0004160016841F08071016001688901FCD5C3
:100CE000416821F003014160416841F00201416027
:100CF0004168C1F381010229FAD10CBD01920CBDFA
:100D000000100240002002407CB501F00FFC1A499F
:100D10000220CDE900010023802218A11A4802F028
:100D2000EDFB15490420091DCDE9000182010023D6
:100D300016A11A4802F0E2FB002506242B46642285
:100D400017A11A48CDE9004502F0D8FB0023642220
:100D500013A11648CDE9004502F0D0FB4FF4FA701C
:100D600001F0EEFD04480838406801F097FEBDE848
:100D70007C4001F02BBC0000B80000205461736B74
:100D80005F32306D73000000651100085461736BB1
:100D90005F43686173736973000000007511000898
:100DA000746573745F7461736B00000051240008F4
:100DB00010B502F0CFFB012803D0BDE8104002F0CF
:100DC000B5B810BD0F4810B5016841F001010160D0
:100DD00041680D4A1140416001680C4A11400160B0
:100DE000016821F480210160416821F4FE01416025
:100DF0004FF41F018160FFF733FF05494FF000609A
:100E0000086010BD001002400000FFF8FFFFF6FE72
:100E100008ED00E010B54FF4E134204600F044FA4C
:100E2000204600F0C3FA00F079FCFFF7DBFC142049
:100E3000FFF7D2FDBDE8104001A000F0B7BC0000F4
:100E40004D6F746F7220696E69742E2E2E200D0AFC
:100E5000000000000029018802D041F0800101E07B
:100E600021F08001018070470029018802D041F003
:100E7000010101E021F0010101807047002930F8F3
:100E8000441F02D041F4004101E0C1F30E01018092
:100E90007047000030B5028C22F001020284028CFF
:100EA0008388048B22F0020224F073050C882C4303
:100EB0000D8915434A882A43114DA8420BD0114D84
:100EC000A84208D0104DA84205D0104DA84202D02B
:100ED0000F4DA8420DD122F008054A8923F4407332
:100EE0002A4322F004058A882A438D891D43CB8931
:100EF0002B4383800483C9888186028430BD00002F
:100F0000002C0140003401400040014000440140F9
:100F100000480140028B22F008020A430283704716
:100F200070B5028C22F010020284028C8388048B3C
:100F30000D8824F4E6464FF6FF7404EA0525354390
:100F40000E8922F0200204EA061616434A8804EAB3
:100F500002123243104EB04202D0104EB04215D1B0
:100F600022F080064A8923F4406304EA02123243E5
:100F700022F040068A8804EA021232438E8904EA8B
:100F800086061E43CB8904EA8303334383800583AB
:100F9000C9880187028470BD002C014000340140E3
:100FA000028B4FF6FF7322F4006203EA0121114322
:100FB0000183704770B5028C22F480720284028C27
:100FC0008388848B0D8824F0730425430E894FF6A3
:100FD000FF7422F4007204EA062616434A8804EAE3
:100FE00002223243104EB04202D0104EB04215D110
:100FF00022F400664A8923F4405304EA0222324371
:1010000022F480668A8804EA022232438E8904EA46
:1010100006161E43CB8904EA03133343838085837A
:10102000C9888187028470BD002C014000340140D2
:10103000828B22F008020A438283704770B5028CCB
:1010400022F480520284058C8288838B0C8823F4DE
:10105000E6464FF6FF7303EA0424344325F40056B2
:101060000D8903EA053535434E8803EA06362E43DB
:10107000094DA84202D0094DA84205D122F480456D
:101080008A8903EA82122A4382808483C988A0F86D
:101090004010068470BD0000002C01400034014067
:1010A000828B4FF6FF7322F4006203EA01211143A1
:1010B00081837047818670470187704781877047B9
:1010C000A0F840107047000030B502881B4C1C4D42
:1010D000A0420DD0A8420BD0B0F1804F08D0194BE0
:1010E000984205D0184B984202D0184B984203D131
:1010F00022F070034A881A43154B984206D0154BCC
:10110000984203D022F44073CA881A4302808A8826
:1011100082850A880285A0420AD0A84208D00E4AD9
:10112000904205D00D4A904202D00D4A904201D122
:10113000097A01860121818230BD0000002C014026
:10114000003401400004004000080040000C004052
:1011500000100040001400400040014000440140E5
:10116000004801404FF47A74204601F0E9FBFFF794
:10117000F1F9F9E708B5DFF8E0A0384CDFF8E0B0A6
:1011800002F0F6F9009037A000F010FB5746D7E9BF
:10119000005631462846FFF797F8D7F80880814671
:1011A0004146FFF791F80746206029463046FFF791
:1011B00039F805464146FFF735F860602846414654
:1011C000FFF782F8A06048464146FFF72BF82C4E07
:1011D000E0605D465A463146384600F0B2FB2A468A
:1011E0003146606800F0ADFB2A463146A06800F049
:1011F000A8FB2A463146E06800F0A3FBA068FFF791
:1012000072F806B26068FFF76EF805B22068FFF763
:101210006AF801B233462A461AA000F0C7FA2068DD
:10122000FFF761F800B2FFF70BFB6068FFF75BF8B0
:1012300000B2FFF737FBA068FFF755F800B2FFF7E1
:1012400063FBE068FFF74FF800B2FFF78FFB142154
:10125000684601F0B1FB93E7D80000208C2A0020FB
:1012600000007A445461736B5F4368617373697300
:101270002072756E6E696E67202E2E2E200D0A006C
:1012800000007AC4776865656C5F76656C6F63692A
:10129000747909783A256420793A2564207A3A25C8
:1012A00064200D0A0000000030B5044687B001211B
:1012B0000420FFF77FFC01218803FFF77BFC4FF43C
:1012C0000071ADF8101018218DF8131003201E4D79
:1012D0008DF8120004A92846FFF725FA2815ADF865
:1012E000100004218DF8131004A92846FFF71BFAFB
:1012F0000020ADF804000094ADF80600ADF8080039
:10130000ADF80C000C20114CADF80A0069462046DF
:1013100000F08AF925218DF8141002208DF81500AF
:1013200001218DF816108DF8171005A8FFF7EEFBB8
:10133000012240F22551204600F05EF901212046AD
:1013400000F022F907B030BD00080140003801402C
:1013500010B501218CB00846FFF714FC104C204654
:10136000FFF74CF90F4800900F480021CDE901012B
:101370001420CDE903018020CDE905012020CDE92D
:1013800007104FF44050CDE9090169462046FFF7A8
:10139000AAF901212046FFF726F90CB010BD000084
:1013A0006C00024004440040C400002070B50446B4
:1013B00086B001210420FFF7FDFB0425ADF8105095
:1013C00018208DF813000320234E8DF8120004A975
:1013D0003046FFF7A8F90820ADF810008DF813503B
:1013E00004A93046FFF79FF901214804FFF7D6FB17
:1013F0000020ADF804000094ADF80600ADF8080038
:10140000ADF80C000C20154CADF80A0069462046DA
:1014100000F00AF926218DF8141002208DF815002D
:1014200001218DF816108DF8171005A8FFF76EFB37
:10143000012240F22441204600F0DEF80122402142
:10144000204600F0ABF8FFF783FF0121204600F0B3
:101450009BF806B070BD0000000801400044004049
:101460002DE9F0410F46804600240D4E0D4D12E04F
:1014700018F804102955304600F030F92A5D21464D
:1014800009A000F093F94021304600F08FF80128C0
:10149000F9D1641CE4B2BC42EAD3BDE8F08100009B
:1014A00000440040E400002073656E6420646174B1
:1014B000615B25645D3A20256420200D0A00000050
:1014C00070B5084D40F225542146284600F075F8C5
:1014D000002806D021462846BDE87040012200F0D1
:1014E0008BB870BD003801402DE9F0411F4E40F22D
:1014F00024484146304600F060F8002833D030469A
:1015000000F0E8F81A4F3846FFF7EAF819490122C7
:10151000194CC0F114000A704880208840BA00B20B
:10152000FEF7D8FE04F114052860608840BA00B2C6
:10153000FEF7D0FE6860A08840BA00B2FEF7CAFE8F
:10154000A86000213846FFF74EF814213846FFF70F
:10155000E7F801213846FFF746F841463046BDE836
:10156000F04100F00BB8BDE8F081000000440040FD
:101570006C00024000000020C40000200A0A012183
:101580009140C943018070470029818902D041F40C
:10159000005101E021F4005181817047002A828AC4
:1015A00001D00A4300E08A4382827047024600204D
:1015B00012880A4200D00120704770B501F01F0563
:1015C00001260024C1F3421306FA05F2012B0FD0C5
:1015D000022B0FD0838A4FEA11210088134206FAAA
:1015E00001F600EA060001D000B10124204670BDDA
:1015F0008389F0E7038AEEE710B5C1F3421301F0E7
:101600001F040121A140012B07D0022B07D0143069
:10161000002A026805D00A4304E00C30F8E71030D5
:10162000F6E78A43026010BD30B50446008A85B0F3
:101630000D464CF6FF710840E98801432182A089DC
:101640004EF6F3110840A9882A8911436A8902439A
:101650001143A181A08A4FF6FF410840A9890143A7
:10166000A1826846FFF7B2FA1948844201D1039873
:1016700000E00298A189090400EBC00101EB001011
:10168000296801D5490000E08900B0FBF1F064222F
:10169000B0FBF2F109010B096FF018056B4300EB89
:1016A0008300A3891D044FF0320306D503EBC0006D
:1016B000B0FBF2F000F0070005E003EB0010B0FB18
:1016C000F2F000F00F000843208105B030BD0000AB
:1016D000003801408088C0F308007047C1F308015A
:1016E00081807047FEE7000010B50B4C01212046B9
:1016F000FEF70BFF02212046FEF796FE0028F9D0E8
:101700002046FEF78EFE40F62E61484340F6FF71FC
:10171000B0FBF1F080B210BD0028014030B587B0B9
:1017200001210820FFF746FA0125ADF814500024E6
:101730008DF8174005A91B48FEF7F5FF0121880227
:10174000FFF738FA4FF46020CDE902048DF8044029
:1017500000948DF80540144C8DF8105069462046D1
:10176000FEF770FEE803FFF703FA072301220821C2
:101770002046FEF78BFE01212046FEF741FE204663
:10178000FEF7BEFE2046FEF756FE0028FAD12046A0
:10179000FEF7C5FE2046FEF73DFE0028FAD107B051
:1017A00030BD0000000C0140002801400FB4054B83
:1017B00010B503A9044A029800F018F810BC5DF8AF
:1017C00014FB000099190008C000002002E008C8BE
:1017D000121F08C1002AFAD170477047002001E0AB
:1017E00001C1121F002AFBD1704700002DE9FF4FF5
:1017F00089B09B460446002506E025280BD05A46B2
:101800000B999047641C6D1C20780028F5D10DB011
:101810002846BDE8F08F0027B8460122474900E07E
:10182000074314F8013F203B02FA03F00842F7D1C6
:1018300020782E2819D114F8010F47F004072A2820
:101840000ED06FF02F022078A0F1300109290CD8BA
:1018500008EB880102EB410100EB0108641CF2E790
:101860000A98641C50F8048B0A9020780028CED087
:10187000642808D0692806D075281ED05A460B99CE
:1018800090476D1C58E00A994FF00A0901C90A9166
:10189000002802DA40422D2102E0390504D52B212F
:1018A0008DF82010012103E0F90704D02021F7E78B
:1018B0008A4608AE0DE00021FAE70A994FF00A09BE
:1018C00001C90A91F7E74946FEF73AFD303106F8BB
:1018D000011D0028F7D1ADEB060000F120097807C3
:1018E00001D44FF00108C84502DDA8EB090000E073
:1018F00000208046002706E008A85A46C05D0B99E4
:1019000090476D1C7F1C5745F6DB04E030205A469B
:101910000B9990476D1CB8F10001A8F10108F5DCA6
:1019200005E016F8010B5A460B9990476D1CB9F16A
:101930000001A9F10109F4DC641C65E70928010034
:10194000FEE770B514460D460646FEF7E5FC01D2EB
:10195000284670BD21463046FEF7E8FC01D22046FD
:1019600070BD304670BD000009490120096809B109
:10197000002070470749CA69002AF9D1044A8968DA
:1019800028321268491E8A42F3D1022070470000B3
:10199000280200200400002070B5074D0446C1B2A3
:1019A0002846FFF79BFE40212846FFF7FFFD002851
:1019B000F9D0204670BD000000380140FFF72AFA38
:1019C000FEF7B2FD01F094F9FEE700002DE9F041C9
:1019D000184E0F460446F5683068001D00F05AFDA9
:1019E00038B9306890F82C10012088403169814363
:1019F0003161601C07D137B13168BDE8F0410E4854
:101A0000091D00F087BD30682C44AC424460316849
:101A100005D2B06BBDE8F041091D00F063BD706BED
:101A2000091D00F05FFDB06A844200D2B462BDE8D7
:101A3000F081000004000020500200202DE9F04158
:101A4000054600F073FD2E4EB068401CB060306853
:101A50002C4F10B1706940B32DE03560B06801289B
:101A600029D1002404EB840007EB800000F02CFD5A
:101A7000641C082CF6D32348A03000F025FD214833
:101A8000B43000F021FD1F48C83000F01DFD1D4896
:101A9000DC3000F019FD1B48F03000F015FD19484E
:101AA000A03070631430B06305E03068E96AC06A42
:101AB000884200D83560706A0121401C7062E86A73
:101AC000326981401143316100EB800007EB8000F7
:101AD000291D00F01FFD00F079FD706900280CD071
:101AE0003068E96AC06A884207D207494FF08050DF
:101AF0000860BFF34F8FBFF36F8FBDE8F081000028
:101B0000040000206001002004ED00E010B500F0AA
:101B10000DFD0E4C2068A0B90D4800F0D5FC0C4816
:101B2000143000F0D1FC0A48E0601430206100223B
:101B30001021052001F010FA206010B105A100F07D
:101B4000CBFEBDE8104000F041BD00004000002089
:101B500064020020546D72510000000070B5124EF6
:101B6000124D1CE001F05AF9306820B1002401F058
:101B70003FFEA4B901E00124F9E700F0D7FCF068CA
:101B8000C468201D00F086FCA868401EA860686834
:101B9000401E686000F01AFD204600F052F86868A8
:101BA0000028DFD170BD00003C02002004000020AE
:101BB00030B4026C0B46002A0BD0C1681144C160DE
:101BC0004468A14201D30168C16030BC1846FEF7E9
:101BD00017BB30BC70472DE9F041856B17460446B2
:101BE0000026026C82B1C7B1E068FEF709FBE1682C
:101BF000206C091AE1602268914202D26168081AD9
:101C0000E060022F16D017E02068A8B9606801F0E4
:101C100037FD0646002060600EE0A068FEF7F0FA8F
:101C2000216CA0680844A0606168884204D32068E1
:101C3000A06001E005B16D1E6D1CA5633046BDE8D6
:101C4000F08110B50446006B00F0F4FC2046BDE8BE
:101C5000104000F0EFBC00000A4900200A69012A88
:101C600000D901200A68D26A0AB100207047064AEA
:101C70001268012AF9D80028F7D1886AC968401A81
:101C800070470000040000206001002010484FF45D
:101C90002051420706D0C01D0D4920F00700411A0F
:101CA000C1F520510B4A00230144C2E90003083961
:101CB000103A21F0070111604B600B600B1AC0E96C
:101CC000001393604FF000405360D06070470000F5
:101CD0008C0200207C0000200E4C40F68C45FFF763
:101CE0003DFFFFF7B9FF0228F9D301F097F8A06A8A
:101CF000E168884204D22A4607A10CA0FFF720FE23
:101D0000FFF7AAFF022801D300F026FD01F070FDC5
:101D1000E5E70000040000202E2E5C467265655247
:101D2000544F535C7461736B732E6300784E657807
:101D3000745461736B556E626C6F636B54696D653F
:101D4000203E3D20785469636B436F756E740000CC
:101D50002DE9F0470E46DDE9098482466FF0030164
:101D6000206B01EB82010844089D20F0070799468B
:101D7000780705D040F22B3219A11E48FFF7E0FD8D
:101D800000202218315C82F83410315C11B1401C03
:101D90001028F6D3002684F84360082D00D30725C9
:101DA000E562C4E91156201D00F099FB04F118000A
:101DB00000F095FB2461C5F108006462A061E6644F
:101DC00084F850604A465146384600F02FFB2060A8
:101DD000B8F1000F01D0C8F80040BDE8F08700005E
:101DE0002E2E5C4672656552544F535C7461736B62
:101DF000732E6300D03B000830B5114900E0114656
:101E00000A688242FBD34B685C18844203D1406865
:101E100018444860084643681C18944209D1084C8D
:101E2000103C2468A24209D052681A4442600A68F1
:101E300012680260814200D0086030BD0460F9E79A
:101E40007C00002070B5002441600B4D0061914280
:101E500006D8D11A8269914206D2011D286907E08D
:101E60009A4203D2994201D3012403E0011DE8689C
:101E700000F038FB204670BD4000002010B504463D
:101E800000F054FBA06B20B1002400F09FFB204623
:101E900010BD0124F9E700002DE9F3410F46009839
:101EA0000026846C2CB940F6CE1216A11AA0FFF7BA
:101EB00047FDA06BE16B884205D340F6CF1211A11C
:101EC0001A48FFF73DFDA06BE16B88420CD294F9F4
:101ED00045503A4669462046FFF77DFE0646681C97
:101EE00005D06D1C84F845503046BDE8FC81606A21
:101EF0000028F9D004F1240001F02CFC0028F3D0D4
:101F00000126F1E72E2E5C4672656552544F535CF4
:101F100071756575652E63007078517565756553CB
:101F20006574436F6E7461696E657200883B00086A
:101F3000F8B5054613480E46C068C068C468201D41
:101F400000F0A8FAE069012816D1A0692B464119D2
:101F500032462046FFF776FF70B100200346014667
:101F600000902A46204601F02DFD28B94FF4027258
:101F700005490648FFF7E4FC616A01B02046BDE868
:101F8000F04008474000002028390008C42100081C
:101F900070B586B0304E54E00198002806DADDE9CD
:101FA0000301029A9047019800284ADB039C60696C
:101FB00010B1201D00F06EFA05A800F0B9F8054632
:101FC00001980A283DD2DFE800F00505053C2839D4
:101FD00005053C280298A169034601442A4620468B
:101FE000FFF730FF00282CD0616A20468847E0695F
:101FF000012826D1002000900298A16900234218F0
:102000001946204601F0DEFC00281AD140F22132A8
:1020100012A118A0FFF794FC13E00298A06128B960
:102020004FF44E720DA115A0FFF78AFCA0692B4654
:1020300041191A462046FFF705FF02E0204600F04E
:10204000F9FA00231A4601A9306800F0C5FF0028FC
:10205000A2D106B070BD0000400000202E2E5C46CC
:1020600072656552544F535C74696D6572732E636B
:102070000000000078526573756C74002820707839
:1020800054696D65722D3E7854696D657250657244
:10209000696F64496E5469636B73203E2030202958
:1020A00000000000F8B50D46064600F0B7FE684691
:1020B00000F03EF80446009810B101F099FBF8BD1D
:1020C0001148ADB101690968D9B10025311B2A4613
:1020D000006800F013FC01F08BFB0028EFD10B49E6
:1020E0004FF080500860BFF34F8FBFF36F8FF8BD84
:1020F000A642EBD801F07CFB21463046FFF718FFE3
:10210000F8BD0125E2E700004000002004ED00E0FA
:102110000648416B096829B1416BC968C9684968BB
:10212000816270474FF0FF31FAE7000004000020A1
:1021300070B5054601F01CFA064E0446B0688442AC
:1021400003D200F009F8012000E0002028602046BA
:10215000B46070BD40000020F8B5184E25E0C0689E
:10216000C4680568201D00F095F9616A204688471B
:10217000E069012819D1A0692844A84206D9246140
:102180006060211DF06800F0ADF90EE0002003460C
:10219000014600902A46204601F014FC28B940F27E
:1021A0009232074907A0FFF7CBFBF06801680029CE
:1021B000D5D13169C6E90310F8BD00004000002008
:1021C0002839000878526573756C740008484068B7
:1021D000401C04D0F42207A111A0FFF7B1FB50204E
:1021E00080F31188BFF34F8FBFF36F8FFEE70000BE
:1021F000540000202E2E5C4672656552544F535C8D
:10220000706F727461626C655C525644535C4152EB
:102210004D5F434D335C706F72742E63000000009D
:102220007578437269746963616C4E657374696E25
:1022300067203D3D207E30554C000000084CE06892
:10224000016839B1002139B10020FFF72BFFFFF7FA
:102250009FFEF4E70121F6E7C0680068F5E700009B
:10226000400000202DE9F041044600F05FF994F9A8
:10227000455004F1240610E0A06C20B10021204656
:10228000FFF70AFE04E0606A48B1304601F062FAE6
:1022900008B100F06FFC6D1E6DB2002DECDC4FF04C
:1022A000FF3684F8456000F091F900F03FF994F9A9
:1022B000445004F1100709E0206948B1384601F0A4
:1022C00049FA08B100F056FC6D1E6DB2002DF3DC2A
:1022D00084F84460BDE8F04100F078B92DE9F041A0
:1022E0000546002600F09AFD314F386808B9FFF71F
:1022F000CDFCF86805424ED1002D4CD0083568075A
:102300000BD005F00700C0F108000544680704D0B1
:10231000BF2228A131A0FFF713FBE5B378688542FF
:1023200039D8234910310846046801E021460446A3
:102330006068A84202D220680028F7D13868B84601
:10234000844228D00E682068086060680836401B08
:1023500010280ED96719780704D0EC2215A12B4854
:10236000FFF7EEFA6068401B786038466560FFF75B
:1023700043FD6168D8F804004246401AC8F80400DA
:10238000D8F80830984200D29060D8F80C00014389
:102390000020C4E9000101F02BFA700705D04FF4CA
:1023A000967204A11A48FFF7CBFA3046BDE8F081D7
:1023B0006C0000202E2E5C4672656552544F535CB3
:1023C000706F727461626C655C4D656D4D616E67B6
:1023D0005C686561705F342E6300000028207857C8
:1023E000616E74656453697A65202620706F72741B
:1023F000425954455F414C49474E4D454E545F4DFF
:1024000041534B2029203D3D20300000C83C0008AE
:102410000C3D00080449086818B10868826C521C19
:1024200082640868704700000400002010B5031F94
:102430004FF080741C601B1F21F001011960191FEF
:10244000024B0B60143940380A6010BDCD210008E2
:102450000B4C4FF47A75284600F072FA09A0FFF78A
:10246000A5F9E1780648891C2170891C6170891CD6
:10247000A170891CE1700421FEF7F2FFEBE7000078
:10248000B00000207461736B2072756E6E696E67A8
:10249000200D0A00D0E9013201699A60D0E90123D8
:1024A0005A604A68824201D182684A600022026111
:1024B0000868401E08607047502080F31188BFF301
:1024C0004F8FBFF36F8FFEE700F108014FF0FF322F
:1024D000C0E90112C1600161002101607047002163
:1024E0000161704730B50C68621C02D000F108022F
:1024F00002E0026904E01A4653681D68A542FAD951
:1025000053684B6099608A60516008610168491C9A
:10251000016030BD42684A6093688B60936859607F
:10252000916008610168491C01607047502080F388
:102530001188BFF34F8FBFF36F8F09494868401C64
:10254000486001280AD10748006810F0FF0F05D045
:102550004FF4BD7204A10FA0FFF7F2B9704700005D
:102560005400002004ED00E02E2E5C46726565529A
:10257000544F535C706F727461626C655C52564468
:10258000535C41524D5F434D335C706F72742E63E8
:10259000000000002820706F72744E5649435F4956
:1025A0004E545F4354524C5F524547202620706F73
:1025B0007274564543544143544956455F4D415307
:1025C0004B2029203D3D20300000000010B5084C74
:1025D000606828B940F2811206A111A0FFF7B0F996
:1025E0006068401E606001D180F3118810BD00005A
:1025F000540000202E2E5C4672656552544F535C89
:10260000706F727461626C655C525644535C4152E7
:102610004D5F434D335C706F72742E630000000099
:102620007578437269746963616C4E657374696E21
:102630006700000070B500282AD0164DA0F10804EC
:102640006068E968084205D14FF4A07212A11CA08D
:10265000FFF776F9206828B140F241120EA125A0BB
:10266000FFF76EF96068E968084211D02268002A15
:102670000ED18843606000F0D1FB6068696808444F
:1026800068602046FFF7B8FBBDE8704001F0B0B8C5
:1026900070BD00006C0000202E2E5C4672656552F5
:1026A000544F535C706F727461626C655C4D656D04
:1026B0004D616E675C686561705F342E6300000079
:1026C000282070784C696E6B2D3E78426C6F636B7E
:1026D00053697A6520262078426C6F636B416C6C7D
:1026E0006F6361746564426974202920213D203044
:1026F0000000000070784C696E6B2D3E70784E655E
:10270000787446726565426C6F636B203D3D204E68
:10271000554C4C0010B50E484FF47A730D4A0068C2
:102720006FF07F44B0FBF3F19160B4FBF1F1D16045
:10273000B0FBF0F12D24B4FBF1F11161B0FBF3F12A
:102740004FF0E020491E41610721016110BD0000EA
:1027500098000020540000202DE9F041324E04463C
:10276000F068844200D904464FF0E027386920F031
:1027700001003861B969B268601E02FB001530695A
:10278000854200D92D1A72B6BFF34F8FBFF36F8FFA
:10279000FFF7EAF808B37D610022BA61386940F0BA
:1027A0000100386124B1BFF34F8F30BFBFF36F8F8B
:1027B000386920F00101396162B6C00319D5B869E2
:1027C000B168281A081A3369401E984201D388421A
:1027D00000D9481E7861641E15E0B86978613869CF
:1027E00040F001003861B068401E786162B6BDE813
:1027F000F081B068B9694443611AB1FBF0F4631C1D
:102800004343581A7861BA61FFF790FE386940F087
:1028100001003861204600F0C7FAB068401E7861B8
:10282000BDE8F041FFF7D2BE5400002010B5FDF71F
:10283000D1FC104C10280CD300F1E02090F8F003EC
:102840002178884205D24FF42A720BA115A0FFF718
:1028500077F81F480068616900F4E060884207D992
:10286000BDE810404FF42E7203A11A48FFF768B874
:1028700010BD0000540000202E2E5C46726565528B
:10288000544F535C706F727461626C655C52564455
:10289000535C41524D5F434D335C706F72742E63D5
:1028A00000000000756343757272656E7450726942
:1028B0006F72697479203E3D2075634D617853795C
:1028C0007343616C6C5072696F72697479000000B7
:1028D0000CED00E0843C000810B5074B002253F8D3
:1028E00032401CB1521C082AF9D310BD43F83210F3
:1028F00003EBC201486010BD2001002070B51546F1
:102900000E460446FFF712FE94F944100020491CBD
:1029100001D184F8440094F94510491C01D184F890
:102920004500FFF753FEA06B28B92A46314604F153
:10293000240000F04DF92046BDE87040FFF792BC3E
:1029400010B5040012D00E49096B29B140F2CF42F4
:102950000CA111A0FEF7F4FF00F060FA0021204660
:10296000FFF734F800F044FF002807D111494FF079
:1029700080500860BFF34F8FBFF36F8F10BD000012
:10298000040000202E2E5C4672656552544F535C45
:102990007461736B732E6300757853636865647537
:1029A0006C657253757370656E646564203D3D207F
:1029B0003000000004ED00E02DE9F0410E46050076
:1029C0004FF0000405D140F279421BA11FA0FEF791
:1029D000B7FF2EB940F27A4217A121A0FEF7B0FF4F
:1029E000254F386B28B140F27B4213A123A0FEF79C
:1029F000A7FF00F013FAFA6828688119904202D9FB
:102A0000884202D804E0884201D8914200D90124CA
:102A100029601CB1881A0021FEF7D8FF00F0E8FEFB
:102A2000002807D11C494FF080500860BFF34F8F3A
:102A3000BFF36F8FBDE8F0812E2E5C467265655244
:102A4000544F535C7461736B732E630070785072D3
:102A50006576696F757357616B6554696D650000C4
:102A600028207854696D65496E6372656D656E7472
:102A7000203E203055202900040000207578536343
:102A8000686564756C657253757370656E646564B2
:102A9000203D3D203000000004ED00E070B504460C
:102AA000FFF744FD244D04B92C68201DFFF7F2FC0C
:102AB00058B9E06A214A00EB800152F8211021B98F
:102AC00001218140286988432861A06A18B104F176
:102AD0001800FFF7DFFC686A401C686228688442BF
:102AE00008D11648211DDC30FFF714FD6868401C32
:102AF000686007E0A868401EA8602046FFF7A1F8BC
:102B0000FFF706FBFFF762FD6869002812D028680E
:102B100084420FD1286B28B140F2654208A10DA074
:102B2000FEF70EFF12494FF080500860BFF34F8F41
:102B3000BFF36F8F70BD0000040000206001002013
:102B40002E2E5C4672656552544F535C7461736BF4
:102B5000732E630075785363686564756C65725392
:102B6000757370656E646564203D3D203000000023
:102B700004ED00E001490120C86170470400002015
:102B800070B50D46040005D140F6063207A10CA031
:102B9000FEF7D6FE0D48016820461831FFF7A2FC6B
:102BA0002846BDE870400121FEF710BF2E2E5C467E
:102BB00072656552544F535C7461736B732E63007E
:102BC00070784576656E744C69737400040000205B
:102BD00070B514460E46050005D140F6313209A104
:102BE0000DA0FEF7ADFE0F48016828461831FFF72B
:102BF00091FC0CB14FF0FF3621463046BDE87040E5
:102C0000FEF7E4BE2E2E5C4672656552544F535C4F
:102C10007461736B732E630070784576656E744CC7
:102C2000697374000400002070B5040039D01D4D94
:102C3000E06A2968C96A884233D2A069002804DBA7
:102C40002868C06AC0F10800A061E06A164E00EB77
:102C50008000616906EB800081421FD1201DFFF7D3
:102C600019FC012150B9E06A00EB800256F82220DD
:102C700022B92A6901FA00F082432A612868C06AF1
:102C8000E0622A6981401143296100EB800006EB74
:102C90008000211DBDE87040FFF73CBC2868C06A79
:102CA000E06270BD040000206001002010B5040047
:102CB00005D140F6C13205A109A0FEF741FE0B483F
:102CC000016A2160C068606010BD00002E2E5C4665
:102CD00072656552544F535C7461736B732E63005D
:102CE000707854696D654F75740000000400002011
:102CF0001CB517480024CDE900402346642215A1E5
:102D0000164800F0FBFB012803D100F027FE012844
:102D10000AD0401C1BD102B040F28472BDE81040C2
:102D20000FA114A0FEF70CBE502080F31188BFF352
:102D30004F8FBFF36F8F06484FF0FF312C38816201
:102D400001214161C460BDE81C4000F0B3B81CBD66
:102D50003000002049444C4500000000D91C000808
:102D60002E2E5C4672656552544F535C7461736BD2
:102D7000732E63007852657475726E20213D206554
:102D80007272434F554C445F4E4F545F414C4C4F11
:102D9000434154455F52455155495245445F4D4565
:102DA0004D4F52590000000070B5084D0446E868C8
:102DB000A96A2044884205D940F6711204A109A0ED
:102DC000FEF7BEFDE8682044E86070BD0400002006
:102DD0002E2E5C4672656552544F535C7461736B62
:102DE000732E63002820785469636B436F756E748B
:102DF000202B20785469636B73546F4A756D702073
:102E000029203C3D20784E6578745461736B556E73
:102E1000626C6F636B54696D650000000248016B62
:102E2000491C0163704700000400002070B5194D73
:102E3000286B10B10120E86170BD0020E8612868AE
:102E400029680068096B884204D8296828683431E9
:102E5000FFF732FB2869104EB0FA80F0C0F11F0076
:102E600000EB800456F8240028B940F6F6220BA1A6
:102E70000F48FEF765FD06EB840000F1080241688B
:102E800049684160914201D149684160C868286041
:102E900070BD000004000020600100202E2E5C4662
:102EA00072656552544F535C7461736B732E63008B
:102EB0003C3C00081CB51A4908780190FF200870B6
:102EC00008788DF800009DF80000164C00F05000C6
:102ED00020700720606107E06069401E60619DF816
:102EE000000040008DF800009DF800000006F3D4BB
:102EF000207D000200F4E0606061019808700A48DB
:102F0000016841F470010160016841F070410160A5
:102F1000FFF700FC00206060FDF726F900201CBDD3
:102F200000E400E05400002020ED00E010B5502047
:102F300080F31188BFF34F8FBFF36F8F00F01EFB3C
:102F400018B104494FF080500860002080F31188C8
:102F500010BD000004ED00E070B50E46050005D17F
:102F60004FF4C4720EA113A0FEF7EAFCA6B105FB54
:102F700006F04C30FFF7B2F904000CD004F14C001D
:102F800066B12060C4E90F562046012100F0E6F842
:102F900000212046A16470BD0020EAE72460F1E72B
:102FA0002E2E5C4672656552544F535C7175657583
:102FB000652E6300757851756575654C656E67742F
:102FC00068203E2028205542617365547970655F02
:102FD00074202920300000002DE9FF4F83B09B466C
:102FE0008A4604004FF0000605D140F2DC4251A1B0
:102FF00055A0FEF7A5FCBAF1000F07D1206C28B14F
:1030000040F2DD424BA15248FEF79AFC00F0A2FAD2
:1030100038B9059828B14FF49C6246A14D48FEF797
:103020008FFC4FF000094FF08057DFF82C81FFF73D
:103030007DFAA56B45B351462046E668FEF7B8FD1C
:10304000BBF1000F13D0E660606A50B104F12400B8
:1030500000F080FB28B1C8F80070BFF34F8FBFF3BA
:103060006F8FFFF7B3FA012007B0BDE8F08F6D1E38
:10307000A563206810B9FFF7CDF9606020690028CA
:10308000EFD004F11000E3E7059808B11EB106E0A7
:10309000FFF79CFA27E06846FFF708FE0126FFF7D6
:1030A00095FAFFF7BBFEFFF741FA94F94400401C84
:1030B00001D184F8449094F94500401C01D184F872
:1030C0004590FFF783FA05A9684600F0CDF900287E
:1030D00020460AD0FFF7C6F800F08AFB2046FEF72C
:1030E000CDFE0028A3D00020BEE7FEF7C7FED8B172
:1030F000206830B9FFF71AFA6068FFF795FDFFF70F
:1031000065FA04F124000599FFF73AFD2046FFF720
:10311000A9F800F06DFB002889D1C8F80070BFF352
:103120004F8FBFF36F8F82E72046FFF79BF800F0C9
:103130005FFB7CE72E2E5C4672656552544F535CF4
:1031400071756575652E63007078517565756500DC
:103150003C3B00084C3A000804ED00E070B50D4619
:10316000040005D140F21B121CA121A0FEF7E8FBD0
:10317000FFF7DCF9D4E90F20216802FB0011616040
:103180000021A1632168A1600A46D4E90F01401E15
:1031900000FB0121E16021464FF0FF3001F8440FB0
:1031A000487004F110004DB1FFF78EF904F12400CE
:1031B000FFF78AF9FFF70AFA012070BD216900299B
:1031C000F8D000F0C7FA0028F4D00B494FF0805037
:1031D0000860BFF34F8FBFF36F8FEBE72E2E5C4677
:1031E00072656552544F535C71756575652E630049
:1031F000707851756575650004ED00E02DE9FF4FAD
:1032000083B099468B4604004FF0000605D140F28A
:10321000D92252A156A0FEF793FBBBF1000F07D1B4
:10322000206C28B140F2DA224CA15348FEF788FB0B
:10323000B9F1020F08D1E06B012805D040F2DB2282
:1032400046A14E48FEF77CFB00F084F938B905989A
:1032500028B140F2DE2241A14948FEF771FB4FF050
:10326000000A4FF08057DFF81C81FFF75FF9A06B71
:10327000E16B884206D3B9F1020F03D0059800B381
:1032800016B325E04A4659462046FEF7A4FCA16C39
:1032900021B149462046FEF7FFFD05E0616A19B1FC
:1032A00004F1240000F056FA28B1C8F80070BFF30A
:1032B0004F8FBFF36F8FFFF789F9012007B0BDE88B
:1032C000F08FFFF783F921E06846FFF7EFFC012656
:1032D000FFF77CF9FFF7A2FDFFF728F994F9440006
:1032E000401C01D184F844A094F94500401C01D150
:1032F00084F845A0FFF76AF905A9684600F0B4F81C
:1033000030B12046FEF7AEFF00F072FA0020D5E79C
:10331000FFF70CF9A06BE16B884201D1012500E0B9
:103320000025FFF753F995B104F110000599FFF757
:1033300027FC2046FEF796FF00F05AFA002894D1A9
:10334000C8F80070BFF34F8FBFF36F8F8DE7204633
:10335000FEF788FF00F04CFA87E700002E2E5C464F
:1033600072656552544F535C71756575652E6300C7
:103370007078517565756500EC3A0008A43A00084C
:103380004C3A000804ED00E02DE9F0479846154658
:103390008946040005D140F29F322AA12EA0FEF7F3
:1033A000CFFAB9F1000F07D1206C28B14FF4687241
:1033B00024A12B48FEF7C4FAB8F1020F08D1E06B44
:1033C000012805D040F2A1321EA12648FEF7B8FA26
:1033D000FFF72CFA5020EFF3118780F31188BFF329
:1033E0004F8FBFF36F8FA06BE16B884207D3B8F1AB
:1033F000020F04D0002087F31188BDE8F08794F90C
:103400004560424649462046FEF7E5FB701C04D065
:10341000761C84F845600120EDE7A06C012620B100
:1034200041462046FEF738FD06E0606A0028F2D0EB
:1034300004F1240000F08EF90028ECD0002DEAD031
:103440002E60E8E72E2E5C4672656552544F535C41
:1034500071756575652E63007078517565756500C9
:10346000EC3A0008A43A000870B50D46040005D1F6
:1034700040F6CB3214A119A0FEF762FA2DB940F63E
:10348000CC3211A118A0FEF75BFAFFF74FF81A4AE9
:10349000D06829684B1C0FD02368126A934202D06F
:1034A000626882420AD96268801A884206D2081A83
:1034B00028602046FFF7FAFB002400E00124FFF714
:1034C00085F8204670BD00002E2E5C467265655260
:1034D000544F535C7461736B732E6300707854693E
:1034E0006D654F757400000070785469636B735498
:1034F0006F57616974000000040000202DE9FF5F30
:103500008346DDE90E87994616468A469000FEF707
:10351000E5FE05001AD05420FEF7E0FE040012D0AC
:1035200025630021CDE90241CDE900874B463246B3
:1035300051465846FEF70CFC2046FEF77FFA012064
:1035400004B0BDE8F09F2846FFF774F84FF0FF3055
:10355000F6E700000548416919B1006B18B1002079
:1035600070470120704702207047000004000020CF
:103570000148C06870470000040000202DE9F041B8
:103580002D4F0026386B40B1B869401CB861F8690E
:1035900000B101263046BDE8F081FD686D1CFD607C
:1035A00011D1786B006828B140F6D91223A128A068
:1035B000FEF7C6F9786BB96B7963B863386A401C5B
:1035C0003862FEF7A5FDB86ADFF8B080854209D3FE
:1035D000786B006880B1786BC068C46860688542A9
:1035E0000DD2B8623868C06A00EB800158F821003B
:1035F0000128CCD90126CAE74FF0FF30F1E7201DA2
:10360000FEF748FFA06A18B104F11800FEF742FF68
:10361000E06A01213A6981401143396100EB800180
:1036200008EB8100211DFEF775FFE06A3968C96A61
:103630008842CDD30126CBE7040000202E2E5C4625
:1036400072656552544F535C7461736B732E6300E3
:1036500028206C6973744C4953545F49535F454D3E
:103660005054592820707844656C617965645461C0
:10367000736B4C69737420292029000060010020BD
:1036800070B504004FF000063CD01F4D28688442FE
:1036900005D040F6C7621DA121A0FEF751F9A06C2C
:1036A00028B940F6C96219A123A0FEF749F9A06C18
:1036B000401EA064626CE16A914223D010BB201DC1
:1036C000FEF7E8FE2249012250B9E06A00EB8003D0
:1036D00051F8233023B92B6902FA00F083432B61A0
:1036E000606CE062C0F10800A061E06A2B69824072
:1036F0001A432A6100EB800001EB8000211DFEF7D8
:1037000009FF0126304670BD040000202E2E5C46C5
:1037100072656552544F535C7461736B732E630012
:103720007078544342203D3D207078437572726535
:103730006E7454434200000070785443422D3E752D
:10374000784D75746578657348656C640000000099
:10375000600100202DE9F041C068C4682CB940F632
:10376000613218A11CA0FEF7EBF804F1180007461F
:10377000FEF790FE1C4D286B012658B139461B48B8
:10378000FEF7C8FEE06A2968C96A884213D9012495
:10379000EE6111E0201DFEF77DFEE06A2A6906FA5F
:1037A00000F111432961114900EB8000C83901EB98
:1037B0008000211DE4E70024FEF7AAFC2046BDE8B6
:1037C000F08100002E2E5C4672656552544F535CAA
:1037D0007461736B732E63007078556E626C6F63E7
:1037E0006B6564544342000004000020280200205E
:1037F0002DE9F0472B4D00242746286B28B94FF4BC
:10380000FD6229A12DA0FEF79BF8FEF78FFE286B25
:10381000401E2863286BE8BBA8682E490126C8B360
:10382000A1F1C8098846D8F80010E9B1D8F80C0011
:10383000C46804F11800FEF72DFE201DFEF72AFED5
:10384000E06A2A6906FA00F11143296100EB800160
:1038500009EB8100211DFEF75DFEE06A2968C96A57
:103860008842E0D3EE61DEE70CB1FEF751FCAC69B3
:103870003CB1FFF783FE00B1EE61641EF9D1002078
:10388000A861E86930B11449012738070860BFF31F
:103890004F8F00E001E0BFF36F8FFEF797FE3846D1
:1038A000BDE8F087040000202E2E5C46726565524C
:1038B000544F535C7461736B732E6300757853635C
:1038C000686564756C657253757370656E64656464
:1038D000000000002802002004ED00E02DE9F04780
:1038E0000746994616460D462820DDF820A0FEF72B
:1038F000F5FC040014D0B8464F46D1462DB94FF41C
:10390000C67209A10EA0FEF71BF8FEF7FFF804F13E
:103910001801C4F8008081E8E002201DFEF7DFFDF9
:103920002046BDE8F08700002E2E5C467265655289
:10393000544F535C74696D6572732E630000000010
:1039400028207854696D6572506572696F64496E9C
:103950005469636B73203E20302029001CB500247D
:10396000FEF7D4F80B48006860B10A490720091D2A
:10397000CDE900010023642207A10948FFF7BEFD3D
:10398000040005D140F2331206A10CA0FDF7D8FFC8
:1039900020461CBD40000020546D72205376630009
:1039A0003D2200082E2E5C4672656552544F535CD2
:1039B00074696D6572732E6300000000785265743F
:1039C00075726E002DE9FF479946DDF830A09046EC
:1039D0000D4606004FF0000705D14FF4D37212A137
:1039E00017A0FDF7ADFF184C206880B1CDE9005855
:1039F0000296062D11DAFFF7ADFD02284FF0000305
:103A000009D0002269462068FFF7F8FB074604B09A
:103A10003846BDE8F0875246F4E700234A46694637
:103A2000FFF7B2FCF2E700002E2E5C46726565528D
:103A3000544F535C74696D6572732E63000000000F
:103A40007854696D6572000040000020212820280C
:103A500020785461736B4765745363686564756C53
:103A6000657253746174652829203D3D207461732B
:103A70006B5343484544554C45525F53555350454D
:103A80004E44454420292026262028207854696366
:103A90006B73546F5761697420213D2030202920B9
:103AA00029000000212820282078436F7079506F6A
:103AB000736974696F6E203D3D2071756575654F42
:103AC0005645525752495445202920262620282061
:103AD000707851756575652D3E75784C656E6774A7
:103AE0006820213D2031202920290000212820287C
:103AF0002070764974656D546F5175657565203D0C
:103B00003D204E554C4C2029202626202820707818
:103B100051756575652D3E75784974656D53697A83
:103B20006520213D202820554261736554797065D8
:103B30005F742029203055202920290021282028A1
:103B4000207076427566666572203D3D204E554C6C
:103B50004C2029202626202820707851756575650F
:103B60002D3E75784974656D53697A6520213D2035
:103B700028205542617365547970655F742029204F
:103B800030552029202900007078517565756553DE
:103B90006574436F6E7461696E65722D3E75784D04
:103BA0006573736167657357616974696E67203CFB
:103BB0002070785175657565536574436F6E7461D7
:103BC000696E65722D3E75784C656E67746800008D
:103BD000282028202820706F7274504F494E544579
:103BE000525F53495A455F545950452029207078F7
:103BF000546F704F66537461636B202620282070C9
:103C00006F7274504F494E5445525F53495A455F45
:103C100054595045202920706F7274425954455FA1
:103C2000414C49474E4D454E545F4D41534B202921
:103C3000203D3D2030554C20290000006C697374F4
:103C400043555252454E545F4C4953545F4C454E78
:103C5000475448282026282070785265616479549A
:103C600061736B734C697374735B207578546F70F8
:103C70005072696F72697479205D20292029203E75
:103C8000203000002820706F727441495243525F07
:103C9000524547202620706F72745052494F524946
:103CA00054595F47524F55505F4D41534B20292087
:103CB0003C3D20756C4D617850524947524F5550EC
:103CC00056616C7565000000282028202820736943
:103CD0007A655F7420292070784E6577426C6F6337
:103CE0006B4C696E6B2029202620706F72744259CC
:103CF00054455F414C49474E4D454E545F4D4153ED
:103D00004B2029203D3D20300000000028202820A5
:103D1000282073697A655F74202920707652657453
:103D200075726E2029202620282073697A655F74B9
:103D3000202920706F7274425954455F414C4947A5
:103D40004E4D454E545F4D41534B2029203D3D2063
:103D500030000000743D000800000020C400000096
:103D6000CC170008383E0008C4000020DC2D0000FD
:103D7000DC17000800000000000000000000000048
:103D80000000000000000000000000000000000033
:103D90000000000000000000000000000000000023
:103DA0000000000000000000000000000000000013
:103DB0000000000000000000000000000000000003
:103DC000000000000000000000000000AAAAAAAA4B
:103DD00000000000000000000000000000000000E3
:103DE00000000000000000000000000000000000D3
:103DF00000000000000000000204060800000000AF
:103E000001020304010203040607080900A24A0490
:103E1000000000000000000001020304060708097A
:103E20000000000000000000000000000000000092
:083E300000000000000000008A
:0400000508000131BD
:00000001FF
